{
	"task4.sol": {
		"studentResult": {
			"abi": [
				{
					"inputs": [
						{
							"internalType": "int256",
							"name": "studentScore",
							"type": "int256"
						}
					],
					"name": "score",
					"outputs": [
						{
							"internalType": "bool",
							"name": "",
							"type": "bool"
						},
						{
							"internalType": "string",
							"name": "",
							"type": "string"
						}
					],
					"stateMutability": "pure",
					"type": "function"
				}
			],
			"devdoc": {
				"kind": "dev",
				"methods": {},
				"version": 1
			},
			"evm": {
				"assembly": "    /* \"task4.sol\":58:751  contract studentResult {... */\n  mstore(0x40, 0x80)\n  callvalue\n  dup1\n  iszero\n  tag_1\n  jumpi\n  0x00\n  dup1\n  revert\ntag_1:\n  pop\n  dataSize(sub_0)\n  dup1\n  dataOffset(sub_0)\n  0x00\n  codecopy\n  0x00\n  return\nstop\n\nsub_0: assembly {\n        /* \"task4.sol\":58:751  contract studentResult {... */\n      mstore(0x40, 0x80)\n      callvalue\n      dup1\n      iszero\n      tag_1\n      jumpi\n      0x00\n      dup1\n      revert\n    tag_1:\n      pop\n      jumpi(tag_2, lt(calldatasize, 0x04))\n      shr(0xe0, calldataload(0x00))\n      dup1\n      0xe2d0ad0e\n      eq\n      tag_3\n      jumpi\n    tag_2:\n      0x00\n      dup1\n      revert\n        /* \"task4.sol\":87:749  function score(int256 studentScore) public pure returns (bool , string memory) {... */\n    tag_3:\n      tag_4\n      0x04\n      dup1\n      calldatasize\n      sub\n      dup2\n      add\n      swap1\n      tag_5\n      swap2\n      swap1\n      tag_6\n      jump\t// in\n    tag_5:\n      tag_7\n      jump\t// in\n    tag_4:\n      mload(0x40)\n      tag_8\n      swap3\n      swap2\n      swap1\n      tag_9\n      jump\t// in\n    tag_8:\n      mload(0x40)\n      dup1\n      swap2\n      sub\n      swap1\n      return\n    tag_7:\n        /* \"task4.sol\":144:148  bool */\n      0x00\n        /* \"task4.sol\":151:164  string memory */\n      0x60\n        /* \"task4.sol\":196:198  60 */\n      0x3c\n        /* \"task4.sol\":180:192  studentScore */\n      dup4\n        /* \"task4.sol\":180:198  studentScore >= 60 */\n      slt\n        /* \"task4.sol\":176:743  if (studentScore >= 60) {... */\n      tag_11\n      jumpi\n        /* \"task4.sol\":233:235  60 */\n      0x3c\n        /* \"task4.sol\":218:230  studentScore */\n      dup4\n        /* \"task4.sol\":218:235  studentScore > 60 */\n      sgt\n        /* \"task4.sol\":218:256  studentScore > 60 && studentScore < 79 */\n      dup1\n      iszero\n      tag_12\n      jumpi\n      pop\n        /* \"task4.sol\":254:256  79 */\n      0x4f\n        /* \"task4.sol\":239:251  studentScore */\n      dup4\n        /* \"task4.sol\":239:256  studentScore < 79 */\n      slt\n        /* \"task4.sol\":218:256  studentScore > 60 && studentScore < 79 */\n    tag_12:\n        /* \"task4.sol\":214:444  if (studentScore > 60 && studentScore < 79) {... */\n      iszero\n      tag_13\n      jumpi\n        /* \"task4.sol\":284:288  true */\n      0x01\n        /* \"task4.sol\":276:310  return (true ,\"Achieved Gade : B\") */\n      mload(0x40)\n      dup1\n      0x40\n      add\n      0x40\n      mstore\n      dup1\n      0x11\n      dup2\n      mstore\n      0x20\n      add\n      0x41636869657665642047616465203a2042000000000000000000000000000000\n      dup2\n      mstore\n      pop\n      swap2\n      pop\n      swap2\n      pop\n      jump(tag_10)\n        /* \"task4.sol\":214:444  if (studentScore > 60 && studentScore < 79) {... */\n    tag_13:\n        /* \"task4.sol\":350:352  80 */\n      0x50\n        /* \"task4.sol\":335:347  studentScore */\n      dup4\n        /* \"task4.sol\":335:352  studentScore > 80 */\n      sgt\n        /* \"task4.sol\":335:374  studentScore > 80 && studentScore < 100 */\n      dup1\n      iszero\n      tag_15\n      jumpi\n      pop\n        /* \"task4.sol\":371:374  100 */\n      0x64\n        /* \"task4.sol\":356:368  studentScore */\n      dup4\n        /* \"task4.sol\":356:374  studentScore < 100 */\n      slt\n        /* \"task4.sol\":335:374  studentScore > 80 && studentScore < 100 */\n    tag_15:\n        /* \"task4.sol\":331:444  if (studentScore > 80 && studentScore < 100) {... */\n      iszero\n      tag_16\n      jumpi\n        /* \"task4.sol\":402:406  true */\n      0x01\n        /* \"task4.sol\":394:429  return (true , \"Achieved Gade : A\") */\n      mload(0x40)\n      dup1\n      0x40\n      add\n      0x40\n      mstore\n      dup1\n      0x11\n      dup2\n      mstore\n      0x20\n      add\n      0x41636869657665642047616465203a2041000000000000000000000000000000\n      dup2\n      mstore\n      pop\n      swap2\n      pop\n      swap2\n      pop\n      jump(tag_10)\n        /* \"task4.sol\":331:444  if (studentScore > 80 && studentScore < 100) {... */\n    tag_16:\n        /* \"task4.sol\":176:743  if (studentScore >= 60) {... */\n      jump(tag_17)\n    tag_11:\n        /* \"task4.sol\":479:481  60 */\n      0x3c\n        /* \"task4.sol\":464:476  studentScore */\n      dup4\n        /* \"task4.sol\":464:481  studentScore < 60 */\n      slt\n        /* \"task4.sol\":460:743  if (studentScore < 60) {... */\n      iszero\n      tag_18\n      jumpi\n        /* \"task4.sol\":516:518  40 */\n      0x28\n        /* \"task4.sol\":501:513  studentScore */\n      dup4\n        /* \"task4.sol\":501:518  studentScore > 40 */\n      sgt\n        /* \"task4.sol\":501:539  studentScore > 40 && studentScore < 59 */\n      dup1\n      iszero\n      tag_19\n      jumpi\n      pop\n        /* \"task4.sol\":537:539  59 */\n      0x3b\n        /* \"task4.sol\":522:534  studentScore */\n      dup4\n        /* \"task4.sol\":522:539  studentScore < 59 */\n      slt\n        /* \"task4.sol\":501:539  studentScore > 40 && studentScore < 59 */\n    tag_19:\n        /* \"task4.sol\":497:733  if (studentScore > 40 && studentScore < 59) {... */\n      iszero\n      tag_20\n      jumpi\n        /* \"task4.sol\":567:572  false */\n      0x00\n        /* \"task4.sol\":559:595  return (false , \"Achieved Gade : C\") */\n      mload(0x40)\n      dup1\n      0x40\n      add\n      0x40\n      mstore\n      dup1\n      0x11\n      dup2\n      mstore\n      0x20\n      add\n      0x41636869657665642047616465203a2043000000000000000000000000000000\n      dup2\n      mstore\n      pop\n      swap2\n      pop\n      swap2\n      pop\n      jump(tag_10)\n        /* \"task4.sol\":497:733  if (studentScore > 40 && studentScore < 59) {... */\n    tag_20:\n        /* \"task4.sol\":635:636  0 */\n      0x00\n        /* \"task4.sol\":620:632  studentScore */\n      dup4\n        /* \"task4.sol\":620:636  studentScore > 0 */\n      sgt\n        /* \"task4.sol\":620:657  studentScore > 0 && studentScore < 39 */\n      dup1\n      iszero\n      tag_22\n      jumpi\n      pop\n        /* \"task4.sol\":655:657  39 */\n      0x27\n        /* \"task4.sol\":640:652  studentScore */\n      dup4\n        /* \"task4.sol\":640:657  studentScore < 39 */\n      slt\n        /* \"task4.sol\":620:657  studentScore > 0 && studentScore < 39 */\n    tag_22:\n        /* \"task4.sol\":616:733  if (studentScore > 0 && studentScore < 39) {... */\n      iszero\n      tag_23\n      jumpi\n        /* \"task4.sol\":685:690  false */\n      0x00\n        /* \"task4.sol\":677:718  return (false , \"Better Luck Next Time.\") */\n      mload(0x40)\n      dup1\n      0x40\n      add\n      0x40\n      mstore\n      dup1\n      0x16\n      dup2\n      mstore\n      0x20\n      add\n      0x426574746572204c75636b204e6578742054696d652e00000000000000000000\n      dup2\n      mstore\n      pop\n      swap2\n      pop\n      swap2\n      pop\n      jump(tag_10)\n        /* \"task4.sol\":616:733  if (studentScore > 0 && studentScore < 39) {... */\n    tag_23:\n        /* \"task4.sol\":460:743  if (studentScore < 60) {... */\n    tag_18:\n        /* \"task4.sol\":176:743  if (studentScore >= 60) {... */\n    tag_17:\n        /* \"task4.sol\":87:749  function score(int256 studentScore) public pure returns (bool , string memory) {... */\n    tag_10:\n      swap2\n      pop\n      swap2\n      jump\t// out\n        /* \"#utility.yul\":88:205   */\n    tag_25:\n        /* \"#utility.yul\":197:198   */\n      0x00\n        /* \"#utility.yul\":194:195   */\n      dup1\n        /* \"#utility.yul\":187:199   */\n      revert\n        /* \"#utility.yul\":334:410   */\n    tag_27:\n        /* \"#utility.yul\":370:377   */\n      0x00\n        /* \"#utility.yul\":399:404   */\n      dup2\n        /* \"#utility.yul\":388:404   */\n      swap1\n      pop\n        /* \"#utility.yul\":334:410   */\n      swap2\n      swap1\n      pop\n      jump\t// out\n        /* \"#utility.yul\":416:536   */\n    tag_28:\n        /* \"#utility.yul\":488:511   */\n      tag_43\n        /* \"#utility.yul\":505:510   */\n      dup2\n        /* \"#utility.yul\":488:511   */\n      tag_27\n      jump\t// in\n    tag_43:\n        /* \"#utility.yul\":481:486   */\n      dup2\n        /* \"#utility.yul\":478:512   */\n      eq\n        /* \"#utility.yul\":468:530   */\n      tag_44\n      jumpi\n        /* \"#utility.yul\":526:527   */\n      0x00\n        /* \"#utility.yul\":523:524   */\n      dup1\n        /* \"#utility.yul\":516:528   */\n      revert\n        /* \"#utility.yul\":468:530   */\n    tag_44:\n        /* \"#utility.yul\":416:536   */\n      pop\n      jump\t// out\n        /* \"#utility.yul\":542:679   */\n    tag_29:\n        /* \"#utility.yul\":587:592   */\n      0x00\n        /* \"#utility.yul\":625:631   */\n      dup2\n        /* \"#utility.yul\":612:632   */\n      calldataload\n        /* \"#utility.yul\":603:632   */\n      swap1\n      pop\n        /* \"#utility.yul\":641:673   */\n      tag_46\n        /* \"#utility.yul\":667:672   */\n      dup2\n        /* \"#utility.yul\":641:673   */\n      tag_28\n      jump\t// in\n    tag_46:\n        /* \"#utility.yul\":542:679   */\n      swap3\n      swap2\n      pop\n      pop\n      jump\t// out\n        /* \"#utility.yul\":685:1012   */\n    tag_6:\n        /* \"#utility.yul\":743:749   */\n      0x00\n        /* \"#utility.yul\":792:794   */\n      0x20\n        /* \"#utility.yul\":780:789   */\n      dup3\n        /* \"#utility.yul\":771:778   */\n      dup5\n        /* \"#utility.yul\":767:790   */\n      sub\n        /* \"#utility.yul\":763:795   */\n      slt\n        /* \"#utility.yul\":760:879   */\n      iszero\n      tag_48\n      jumpi\n        /* \"#utility.yul\":798:877   */\n      tag_49\n      tag_25\n      jump\t// in\n    tag_49:\n        /* \"#utility.yul\":760:879   */\n    tag_48:\n        /* \"#utility.yul\":918:919   */\n      0x00\n        /* \"#utility.yul\":943:995   */\n      tag_50\n        /* \"#utility.yul\":987:994   */\n      dup5\n        /* \"#utility.yul\":978:984   */\n      dup3\n        /* \"#utility.yul\":967:976   */\n      dup6\n        /* \"#utility.yul\":963:985   */\n      add\n        /* \"#utility.yul\":943:995   */\n      tag_29\n      jump\t// in\n    tag_50:\n        /* \"#utility.yul\":933:995   */\n      swap2\n      pop\n        /* \"#utility.yul\":889:1005   */\n      pop\n        /* \"#utility.yul\":685:1012   */\n      swap3\n      swap2\n      pop\n      pop\n      jump\t// out\n        /* \"#utility.yul\":1018:1108   */\n    tag_30:\n        /* \"#utility.yul\":1052:1059   */\n      0x00\n        /* \"#utility.yul\":1095:1100   */\n      dup2\n        /* \"#utility.yul\":1088:1101   */\n      iszero\n        /* \"#utility.yul\":1081:1102   */\n      iszero\n        /* \"#utility.yul\":1070:1102   */\n      swap1\n      pop\n        /* \"#utility.yul\":1018:1108   */\n      swap2\n      swap1\n      pop\n      jump\t// out\n        /* \"#utility.yul\":1114:1223   */\n    tag_31:\n        /* \"#utility.yul\":1195:1216   */\n      tag_53\n        /* \"#utility.yul\":1210:1215   */\n      dup2\n        /* \"#utility.yul\":1195:1216   */\n      tag_30\n      jump\t// in\n    tag_53:\n        /* \"#utility.yul\":1190:1193   */\n      dup3\n        /* \"#utility.yul\":1183:1217   */\n      mstore\n        /* \"#utility.yul\":1114:1223   */\n      pop\n      pop\n      jump\t// out\n        /* \"#utility.yul\":1229:1328   */\n    tag_32:\n        /* \"#utility.yul\":1281:1287   */\n      0x00\n        /* \"#utility.yul\":1315:1320   */\n      dup2\n        /* \"#utility.yul\":1309:1321   */\n      mload\n        /* \"#utility.yul\":1299:1321   */\n      swap1\n      pop\n        /* \"#utility.yul\":1229:1328   */\n      swap2\n      swap1\n      pop\n      jump\t// out\n        /* \"#utility.yul\":1334:1503   */\n    tag_33:\n        /* \"#utility.yul\":1418:1429   */\n      0x00\n        /* \"#utility.yul\":1452:1458   */\n      dup3\n        /* \"#utility.yul\":1447:1450   */\n      dup3\n        /* \"#utility.yul\":1440:1459   */\n      mstore\n        /* \"#utility.yul\":1492:1496   */\n      0x20\n        /* \"#utility.yul\":1487:1490   */\n      dup3\n        /* \"#utility.yul\":1483:1497   */\n      add\n        /* \"#utility.yul\":1468:1497   */\n      swap1\n      pop\n        /* \"#utility.yul\":1334:1503   */\n      swap3\n      swap2\n      pop\n      pop\n      jump\t// out\n        /* \"#utility.yul\":1509:1755   */\n    tag_34:\n        /* \"#utility.yul\":1590:1591   */\n      0x00\n        /* \"#utility.yul\":1600:1713   */\n    tag_57:\n        /* \"#utility.yul\":1614:1620   */\n      dup4\n        /* \"#utility.yul\":1611:1612   */\n      dup2\n        /* \"#utility.yul\":1608:1621   */\n      lt\n        /* \"#utility.yul\":1600:1713   */\n      iszero\n      tag_59\n      jumpi\n        /* \"#utility.yul\":1699:1700   */\n      dup1\n        /* \"#utility.yul\":1694:1697   */\n      dup3\n        /* \"#utility.yul\":1690:1701   */\n      add\n        /* \"#utility.yul\":1684:1702   */\n      mload\n        /* \"#utility.yul\":1680:1681   */\n      dup2\n        /* \"#utility.yul\":1675:1678   */\n      dup5\n        /* \"#utility.yul\":1671:1682   */\n      add\n        /* \"#utility.yul\":1664:1703   */\n      mstore\n        /* \"#utility.yul\":1636:1638   */\n      0x20\n        /* \"#utility.yul\":1633:1634   */\n      dup2\n        /* \"#utility.yul\":1629:1639   */\n      add\n        /* \"#utility.yul\":1624:1639   */\n      swap1\n      pop\n        /* \"#utility.yul\":1600:1713   */\n      jump(tag_57)\n    tag_59:\n        /* \"#utility.yul\":1747:1748   */\n      0x00\n        /* \"#utility.yul\":1738:1744   */\n      dup5\n        /* \"#utility.yul\":1733:1736   */\n      dup5\n        /* \"#utility.yul\":1729:1745   */\n      add\n        /* \"#utility.yul\":1722:1749   */\n      mstore\n        /* \"#utility.yul\":1571:1755   */\n      pop\n        /* \"#utility.yul\":1509:1755   */\n      pop\n      pop\n      pop\n      jump\t// out\n        /* \"#utility.yul\":1761:1863   */\n    tag_35:\n        /* \"#utility.yul\":1802:1808   */\n      0x00\n        /* \"#utility.yul\":1853:1855   */\n      0x1f\n        /* \"#utility.yul\":1849:1856   */\n      not\n        /* \"#utility.yul\":1844:1846   */\n      0x1f\n        /* \"#utility.yul\":1837:1842   */\n      dup4\n        /* \"#utility.yul\":1833:1847   */\n      add\n        /* \"#utility.yul\":1829:1857   */\n      and\n        /* \"#utility.yul\":1819:1857   */\n      swap1\n      pop\n        /* \"#utility.yul\":1761:1863   */\n      swap2\n      swap1\n      pop\n      jump\t// out\n        /* \"#utility.yul\":1869:2246   */\n    tag_36:\n        /* \"#utility.yul\":1957:1960   */\n      0x00\n        /* \"#utility.yul\":1985:2024   */\n      tag_62\n        /* \"#utility.yul\":2018:2023   */\n      dup3\n        /* \"#utility.yul\":1985:2024   */\n      tag_32\n      jump\t// in\n    tag_62:\n        /* \"#utility.yul\":2040:2111   */\n      tag_63\n        /* \"#utility.yul\":2104:2110   */\n      dup2\n        /* \"#utility.yul\":2099:2102   */\n      dup6\n        /* \"#utility.yul\":2040:2111   */\n      tag_33\n      jump\t// in\n    tag_63:\n        /* \"#utility.yul\":2033:2111   */\n      swap4\n      pop\n        /* \"#utility.yul\":2120:2185   */\n      tag_64\n        /* \"#utility.yul\":2178:2184   */\n      dup2\n        /* \"#utility.yul\":2173:2176   */\n      dup6\n        /* \"#utility.yul\":2166:2170   */\n      0x20\n        /* \"#utility.yul\":2159:2164   */\n      dup7\n        /* \"#utility.yul\":2155:2171   */\n      add\n        /* \"#utility.yul\":2120:2185   */\n      tag_34\n      jump\t// in\n    tag_64:\n        /* \"#utility.yul\":2210:2239   */\n      tag_65\n        /* \"#utility.yul\":2232:2238   */\n      dup2\n        /* \"#utility.yul\":2210:2239   */\n      tag_35\n      jump\t// in\n    tag_65:\n        /* \"#utility.yul\":2205:2208   */\n      dup5\n        /* \"#utility.yul\":2201:2240   */\n      add\n        /* \"#utility.yul\":2194:2240   */\n      swap2\n      pop\n        /* \"#utility.yul\":1961:2246   */\n      pop\n        /* \"#utility.yul\":1869:2246   */\n      swap3\n      swap2\n      pop\n      pop\n      jump\t// out\n        /* \"#utility.yul\":2252:2663   */\n    tag_9:\n        /* \"#utility.yul\":2387:2391   */\n      0x00\n        /* \"#utility.yul\":2425:2427   */\n      0x40\n        /* \"#utility.yul\":2414:2423   */\n      dup3\n        /* \"#utility.yul\":2410:2428   */\n      add\n        /* \"#utility.yul\":2402:2428   */\n      swap1\n      pop\n        /* \"#utility.yul\":2438:2503   */\n      tag_67\n        /* \"#utility.yul\":2500:2501   */\n      0x00\n        /* \"#utility.yul\":2489:2498   */\n      dup4\n        /* \"#utility.yul\":2485:2502   */\n      add\n        /* \"#utility.yul\":2476:2482   */\n      dup6\n        /* \"#utility.yul\":2438:2503   */\n      tag_31\n      jump\t// in\n    tag_67:\n        /* \"#utility.yul\":2550:2559   */\n      dup2\n        /* \"#utility.yul\":2544:2548   */\n      dup2\n        /* \"#utility.yul\":2540:2560   */\n      sub\n        /* \"#utility.yul\":2535:2537   */\n      0x20\n        /* \"#utility.yul\":2524:2533   */\n      dup4\n        /* \"#utility.yul\":2520:2538   */\n      add\n        /* \"#utility.yul\":2513:2561   */\n      mstore\n        /* \"#utility.yul\":2578:2656   */\n      tag_68\n        /* \"#utility.yul\":2651:2655   */\n      dup2\n        /* \"#utility.yul\":2642:2648   */\n      dup5\n        /* \"#utility.yul\":2578:2656   */\n      tag_36\n      jump\t// in\n    tag_68:\n        /* \"#utility.yul\":2570:2656   */\n      swap1\n      pop\n        /* \"#utility.yul\":2252:2663   */\n      swap4\n      swap3\n      pop\n      pop\n      pop\n      jump\t// out\n\n    auxdata: 0xa264697066735822122002d1e9a34c1d249a939135c935a869ff051765b2bbb1e96643edeb7b3268052964736f6c63430008120033\n}\n",
				"bytecode": {
					"linkReferences": {},
					"object": "608060405234801561001057600080fd5b50610354806100206000396000f3fe608060405234801561001057600080fd5b506004361061002b5760003560e01c8063e2d0ad0e14610030575b600080fd5b61004a60048036038101906100459190610216565b610061565b6040516100589291906102ee565b60405180910390f35b60006060603c831261011e57603c8313801561007d5750604f83125b156100c35760016040518060400160405280601181526020017f41636869657665642047616465203a2042000000000000000000000000000000815250915091506101d6565b6050831380156100d35750606483125b156101195760016040518060400160405280601181526020017f41636869657665642047616465203a2041000000000000000000000000000000815250915091506101d6565b6101d5565b603c8312156101d4576028831380156101375750603b83125b1561017d5760006040518060400160405280601181526020017f41636869657665642047616465203a2043000000000000000000000000000000815250915091506101d6565b60008313801561018d5750602783125b156101d35760006040518060400160405280601681526020017f426574746572204c75636b204e6578742054696d652e00000000000000000000815250915091506101d6565b5b5b5b915091565b600080fd5b6000819050919050565b6101f3816101e0565b81146101fe57600080fd5b50565b600081359050610210816101ea565b92915050565b60006020828403121561022c5761022b6101db565b5b600061023a84828501610201565b91505092915050565b60008115159050919050565b61025881610243565b82525050565b600081519050919050565b600082825260208201905092915050565b60005b8381101561029857808201518184015260208101905061027d565b60008484015250505050565b6000601f19601f8301169050919050565b60006102c08261025e565b6102ca8185610269565b93506102da81856020860161027a565b6102e3816102a4565b840191505092915050565b6000604082019050610303600083018561024f565b818103602083015261031581846102b5565b9050939250505056fea264697066735822122002d1e9a34c1d249a939135c935a869ff051765b2bbb1e96643edeb7b3268052964736f6c63430008120033",
					"opcodes": "PUSH1 0x80 PUSH1 0x40 MSTORE CALLVALUE DUP1 ISZERO PUSH2 0x10 JUMPI PUSH1 0x0 DUP1 REVERT JUMPDEST POP PUSH2 0x354 DUP1 PUSH2 0x20 PUSH1 0x0 CODECOPY PUSH1 0x0 RETURN INVALID PUSH1 0x80 PUSH1 0x40 MSTORE CALLVALUE DUP1 ISZERO PUSH2 0x10 JUMPI PUSH1 0x0 DUP1 REVERT JUMPDEST POP PUSH1 0x4 CALLDATASIZE LT PUSH2 0x2B JUMPI PUSH1 0x0 CALLDATALOAD PUSH1 0xE0 SHR DUP1 PUSH4 0xE2D0AD0E EQ PUSH2 0x30 JUMPI JUMPDEST PUSH1 0x0 DUP1 REVERT JUMPDEST PUSH2 0x4A PUSH1 0x4 DUP1 CALLDATASIZE SUB DUP2 ADD SWAP1 PUSH2 0x45 SWAP2 SWAP1 PUSH2 0x216 JUMP JUMPDEST PUSH2 0x61 JUMP JUMPDEST PUSH1 0x40 MLOAD PUSH2 0x58 SWAP3 SWAP2 SWAP1 PUSH2 0x2EE JUMP JUMPDEST PUSH1 0x40 MLOAD DUP1 SWAP2 SUB SWAP1 RETURN JUMPDEST PUSH1 0x0 PUSH1 0x60 PUSH1 0x3C DUP4 SLT PUSH2 0x11E JUMPI PUSH1 0x3C DUP4 SGT DUP1 ISZERO PUSH2 0x7D JUMPI POP PUSH1 0x4F DUP4 SLT JUMPDEST ISZERO PUSH2 0xC3 JUMPI PUSH1 0x1 PUSH1 0x40 MLOAD DUP1 PUSH1 0x40 ADD PUSH1 0x40 MSTORE DUP1 PUSH1 0x11 DUP2 MSTORE PUSH1 0x20 ADD PUSH32 0x41636869657665642047616465203A2042000000000000000000000000000000 DUP2 MSTORE POP SWAP2 POP SWAP2 POP PUSH2 0x1D6 JUMP JUMPDEST PUSH1 0x50 DUP4 SGT DUP1 ISZERO PUSH2 0xD3 JUMPI POP PUSH1 0x64 DUP4 SLT JUMPDEST ISZERO PUSH2 0x119 JUMPI PUSH1 0x1 PUSH1 0x40 MLOAD DUP1 PUSH1 0x40 ADD PUSH1 0x40 MSTORE DUP1 PUSH1 0x11 DUP2 MSTORE PUSH1 0x20 ADD PUSH32 0x41636869657665642047616465203A2041000000000000000000000000000000 DUP2 MSTORE POP SWAP2 POP SWAP2 POP PUSH2 0x1D6 JUMP JUMPDEST PUSH2 0x1D5 JUMP JUMPDEST PUSH1 0x3C DUP4 SLT ISZERO PUSH2 0x1D4 JUMPI PUSH1 0x28 DUP4 SGT DUP1 ISZERO PUSH2 0x137 JUMPI POP PUSH1 0x3B DUP4 SLT JUMPDEST ISZERO PUSH2 0x17D JUMPI PUSH1 0x0 PUSH1 0x40 MLOAD DUP1 PUSH1 0x40 ADD PUSH1 0x40 MSTORE DUP1 PUSH1 0x11 DUP2 MSTORE PUSH1 0x20 ADD PUSH32 0x41636869657665642047616465203A2043000000000000000000000000000000 DUP2 MSTORE POP SWAP2 POP SWAP2 POP PUSH2 0x1D6 JUMP JUMPDEST PUSH1 0x0 DUP4 SGT DUP1 ISZERO PUSH2 0x18D JUMPI POP PUSH1 0x27 DUP4 SLT JUMPDEST ISZERO PUSH2 0x1D3 JUMPI PUSH1 0x0 PUSH1 0x40 MLOAD DUP1 PUSH1 0x40 ADD PUSH1 0x40 MSTORE DUP1 PUSH1 0x16 DUP2 MSTORE PUSH1 0x20 ADD PUSH32 0x426574746572204C75636B204E6578742054696D652E00000000000000000000 DUP2 MSTORE POP SWAP2 POP SWAP2 POP PUSH2 0x1D6 JUMP JUMPDEST JUMPDEST JUMPDEST JUMPDEST SWAP2 POP SWAP2 JUMP JUMPDEST PUSH1 0x0 DUP1 REVERT JUMPDEST PUSH1 0x0 DUP2 SWAP1 POP SWAP2 SWAP1 POP JUMP JUMPDEST PUSH2 0x1F3 DUP2 PUSH2 0x1E0 JUMP JUMPDEST DUP2 EQ PUSH2 0x1FE JUMPI PUSH1 0x0 DUP1 REVERT JUMPDEST POP JUMP JUMPDEST PUSH1 0x0 DUP2 CALLDATALOAD SWAP1 POP PUSH2 0x210 DUP2 PUSH2 0x1EA JUMP JUMPDEST SWAP3 SWAP2 POP POP JUMP JUMPDEST PUSH1 0x0 PUSH1 0x20 DUP3 DUP5 SUB SLT ISZERO PUSH2 0x22C JUMPI PUSH2 0x22B PUSH2 0x1DB JUMP JUMPDEST JUMPDEST PUSH1 0x0 PUSH2 0x23A DUP5 DUP3 DUP6 ADD PUSH2 0x201 JUMP JUMPDEST SWAP2 POP POP SWAP3 SWAP2 POP POP JUMP JUMPDEST PUSH1 0x0 DUP2 ISZERO ISZERO SWAP1 POP SWAP2 SWAP1 POP JUMP JUMPDEST PUSH2 0x258 DUP2 PUSH2 0x243 JUMP JUMPDEST DUP3 MSTORE POP POP JUMP JUMPDEST PUSH1 0x0 DUP2 MLOAD SWAP1 POP SWAP2 SWAP1 POP JUMP JUMPDEST PUSH1 0x0 DUP3 DUP3 MSTORE PUSH1 0x20 DUP3 ADD SWAP1 POP SWAP3 SWAP2 POP POP JUMP JUMPDEST PUSH1 0x0 JUMPDEST DUP4 DUP2 LT ISZERO PUSH2 0x298 JUMPI DUP1 DUP3 ADD MLOAD DUP2 DUP5 ADD MSTORE PUSH1 0x20 DUP2 ADD SWAP1 POP PUSH2 0x27D JUMP JUMPDEST PUSH1 0x0 DUP5 DUP5 ADD MSTORE POP POP POP POP JUMP JUMPDEST PUSH1 0x0 PUSH1 0x1F NOT PUSH1 0x1F DUP4 ADD AND SWAP1 POP SWAP2 SWAP1 POP JUMP JUMPDEST PUSH1 0x0 PUSH2 0x2C0 DUP3 PUSH2 0x25E JUMP JUMPDEST PUSH2 0x2CA DUP2 DUP6 PUSH2 0x269 JUMP JUMPDEST SWAP4 POP PUSH2 0x2DA DUP2 DUP6 PUSH1 0x20 DUP7 ADD PUSH2 0x27A JUMP JUMPDEST PUSH2 0x2E3 DUP2 PUSH2 0x2A4 JUMP JUMPDEST DUP5 ADD SWAP2 POP POP SWAP3 SWAP2 POP POP JUMP JUMPDEST PUSH1 0x0 PUSH1 0x40 DUP3 ADD SWAP1 POP PUSH2 0x303 PUSH1 0x0 DUP4 ADD DUP6 PUSH2 0x24F JUMP JUMPDEST DUP2 DUP2 SUB PUSH1 0x20 DUP4 ADD MSTORE PUSH2 0x315 DUP2 DUP5 PUSH2 0x2B5 JUMP JUMPDEST SWAP1 POP SWAP4 SWAP3 POP POP POP JUMP INVALID LOG2 PUSH5 0x6970667358 0x22 SLT KECCAK256 MUL 0xD1 0xE9 LOG3 0x4C SAR 0x24 SWAP11 SWAP4 SWAP2 CALLDATALOAD 0xC9 CALLDATALOAD 0xA8 PUSH10 0xFF051765B2BBB1E96643 0xED 0xEB PUSH28 0x3268052964736F6C6343000812003300000000000000000000000000 "
				},
				"gasEstimates": {
					"creation": {
						"codeDepositCost": "170400",
						"executionCost": "214",
						"totalCost": "170614"
					},
					"external": {
						"score(int256)": "infinite"
					}
				},
				"methodIdentifiers": {
					"score(int256)": "e2d0ad0e"
				}
			},
			"storageLayout": {
				"storage": [],
				"types": null
			},
			"userdoc": {
				"kind": "user",
				"methods": {},
				"version": 1
			}
		}
	}
}