{
	"exercise7.sol": {
		"dynamicArray": {
			"abi": [
				{
					"inputs": [],
					"name": "array2",
					"outputs": [
						{
							"internalType": "string[]",
							"name": "",
							"type": "string[]"
						}
					],
					"stateMutability": "view",
					"type": "function"
				},
				{
					"inputs": [],
					"name": "lengthOfArray",
					"outputs": [
						{
							"internalType": "uint256",
							"name": "",
							"type": "uint256"
						}
					],
					"stateMutability": "view",
					"type": "function"
				},
				{
					"inputs": [],
					"name": "pop",
					"outputs": [],
					"stateMutability": "nonpayable",
					"type": "function"
				},
				{
					"inputs": [],
					"name": "push",
					"outputs": [],
					"stateMutability": "nonpayable",
					"type": "function"
				}
			],
			"devdoc": {
				"kind": "dev",
				"methods": {},
				"version": 1
			},
			"evm": {
				"assembly": "    /* \"exercise7.sol\":61:450  contract dynamicArray{... */\n  mstore(0x40, 0x80)\n  callvalue\n  dup1\n  iszero\n  tag_1\n  jumpi\n  0x00\n  dup1\n  revert\ntag_1:\n  pop\n  dataSize(sub_0)\n  dup1\n  dataOffset(sub_0)\n  0x00\n  codecopy\n  0x00\n  return\nstop\n\nsub_0: assembly {\n        /* \"exercise7.sol\":61:450  contract dynamicArray{... */\n      mstore(0x40, 0x80)\n      callvalue\n      dup1\n      iszero\n      tag_1\n      jumpi\n      0x00\n      dup1\n      revert\n    tag_1:\n      pop\n      jumpi(tag_2, lt(calldatasize, 0x04))\n      shr(0xe0, calldataload(0x00))\n      dup1\n      0x20346a72\n      eq\n      tag_3\n      jumpi\n      dup1\n      0x2fd508c9\n      eq\n      tag_4\n      jumpi\n      dup1\n      0x8035f0ce\n      eq\n      tag_5\n      jumpi\n      dup1\n      0xa4ece52c\n      eq\n      tag_6\n      jumpi\n    tag_2:\n      0x00\n      dup1\n      revert\n        /* \"exercise7.sol\":362:447  function array2() public view returns (string[] memory){... */\n    tag_3:\n      tag_7\n      tag_8\n      jump\t// in\n    tag_7:\n      mload(0x40)\n      tag_9\n      swap2\n      swap1\n      tag_10\n      jump\t// in\n    tag_9:\n      mload(0x40)\n      dup1\n      swap2\n      sub\n      swap1\n      return\n        /* \"exercise7.sol\":211:299  function lengthOfArray() public view returns (uint){... */\n    tag_4:\n      tag_11\n      tag_12\n      jump\t// in\n    tag_11:\n      mload(0x40)\n      tag_13\n      swap2\n      swap1\n      tag_14\n      jump\t// in\n    tag_13:\n      mload(0x40)\n      dup1\n      swap2\n      sub\n      swap1\n      return\n        /* \"exercise7.sol\":109:205  function push() public {... */\n    tag_5:\n      tag_15\n      tag_16\n      jump\t// in\n    tag_15:\n      stop\n        /* \"exercise7.sol\":305:356  function pop() public {... */\n    tag_6:\n      tag_17\n      tag_18\n      jump\t// in\n    tag_17:\n      stop\n        /* \"exercise7.sol\":362:447  function array2() public view returns (string[] memory){... */\n    tag_8:\n        /* \"exercise7.sol\":401:416  string[] memory */\n      0x60\n        /* \"exercise7.sol\":435:439  arr2 */\n      0x00\n        /* \"exercise7.sol\":428:439  return arr2 */\n      dup1\n      sload\n      dup1\n      0x20\n      mul\n      0x20\n      add\n      mload(0x40)\n      swap1\n      dup2\n      add\n      0x40\n      mstore\n      dup1\n      swap3\n      swap2\n      swap1\n      dup2\n      dup2\n      mstore\n      0x20\n      add\n      0x00\n      swap1\n    tag_20:\n      dup3\n      dup3\n      lt\n      iszero\n      tag_21\n      jumpi\n      dup4\n      dup3\n      swap1\n      0x00\n      mstore\n      keccak256(0x00, 0x20)\n      add\n      dup1\n      sload\n      tag_23\n      swap1\n      tag_24\n      jump\t// in\n    tag_23:\n      dup1\n      0x1f\n      add\n      0x20\n      dup1\n      swap2\n      div\n      mul\n      0x20\n      add\n      mload(0x40)\n      swap1\n      dup2\n      add\n      0x40\n      mstore\n      dup1\n      swap3\n      swap2\n      swap1\n      dup2\n      dup2\n      mstore\n      0x20\n      add\n      dup3\n      dup1\n      sload\n      tag_25\n      swap1\n      tag_24\n      jump\t// in\n    tag_25:\n      dup1\n      iszero\n      tag_26\n      jumpi\n      dup1\n      0x1f\n      lt\n      tag_27\n      jumpi\n      0x0100\n      dup1\n      dup4\n      sload\n      div\n      mul\n      dup4\n      mstore\n      swap2\n      0x20\n      add\n      swap2\n      jump(tag_26)\n    tag_27:\n      dup3\n      add\n      swap2\n      swap1\n      0x00\n      mstore\n      keccak256(0x00, 0x20)\n      swap1\n    tag_28:\n      dup2\n      sload\n      dup2\n      mstore\n      swap1\n      0x01\n      add\n      swap1\n      0x20\n      add\n      dup1\n      dup4\n      gt\n      tag_28\n      jumpi\n      dup3\n      swap1\n      sub\n      0x1f\n      and\n      dup3\n      add\n      swap2\n    tag_26:\n      pop\n      pop\n      pop\n      pop\n      pop\n      dup2\n      mstore\n      0x20\n      add\n      swap1\n      0x01\n      add\n      swap1\n      jump(tag_20)\n    tag_21:\n      pop\n      pop\n      pop\n      pop\n      swap1\n      pop\n        /* \"exercise7.sol\":362:447  function array2() public view returns (string[] memory){... */\n      swap1\n      jump\t// out\n        /* \"exercise7.sol\":211:299  function lengthOfArray() public view returns (uint){... */\n    tag_12:\n        /* \"exercise7.sol\":257:261  uint */\n      0x00\n        /* \"exercise7.sol\":280:284  arr2 */\n      dup1\n        /* \"exercise7.sol\":280:291  arr2.length */\n      dup1\n      sload\n      swap1\n      pop\n        /* \"exercise7.sol\":273:291  return arr2.length */\n      swap1\n      pop\n        /* \"exercise7.sol\":211:299  function lengthOfArray() public view returns (uint){... */\n      swap1\n      jump\t// out\n        /* \"exercise7.sol\":109:205  function push() public {... */\n    tag_16:\n        /* \"exercise7.sol\":143:164  arr2.push() = \"jawad\" */\n      mload(0x40)\n      dup1\n      0x40\n      add\n      0x40\n      mstore\n      dup1\n      0x05\n      dup2\n      mstore\n      0x20\n      add\n      0x6a61776164000000000000000000000000000000000000000000000000000000\n      dup2\n      mstore\n      pop\n        /* \"exercise7.sol\":143:147  arr2 */\n      0x00\n        /* \"exercise7.sol\":143:154  arr2.push() */\n      0x01\n      dup2\n      0x01\n      dup2\n      sload\n      add\n      dup1\n      dup3\n      sstore\n      dup1\n      swap2\n      pop\n      pop\n      sub\n      swap1\n      0x00\n      mstore\n      keccak256(0x00, 0x20)\n      add\n        /* \"exercise7.sol\":143:164  arr2.push() = \"jawad\" */\n      swap1\n      dup2\n      tag_32\n      swap2\n      swap1\n      tag_33\n      jump\t// in\n    tag_32:\n      pop\n        /* \"exercise7.sol\":175:197  arr2.push() = \" karim\" */\n      mload(0x40)\n      dup1\n      0x40\n      add\n      0x40\n      mstore\n      dup1\n      0x06\n      dup2\n      mstore\n      0x20\n      add\n      0x206b6172696d0000000000000000000000000000000000000000000000000000\n      dup2\n      mstore\n      pop\n        /* \"exercise7.sol\":175:179  arr2 */\n      0x00\n        /* \"exercise7.sol\":175:186  arr2.push() */\n      0x01\n      dup2\n      0x01\n      dup2\n      sload\n      add\n      dup1\n      dup3\n      sstore\n      dup1\n      swap2\n      pop\n      pop\n      sub\n      swap1\n      0x00\n      mstore\n      keccak256(0x00, 0x20)\n      add\n        /* \"exercise7.sol\":175:197  arr2.push() = \" karim\" */\n      swap1\n      dup2\n      tag_35\n      swap2\n      swap1\n      tag_33\n      jump\t// in\n    tag_35:\n      pop\n        /* \"exercise7.sol\":109:205  function push() public {... */\n      jump\t// out\n        /* \"exercise7.sol\":305:356  function pop() public {... */\n    tag_18:\n        /* \"exercise7.sol\":338:342  arr2 */\n      0x00\n        /* \"exercise7.sol\":338:348  arr2.pop() */\n      dup1\n      sload\n      dup1\n      tag_37\n      jumpi\n      tag_38\n      tag_39\n      jump\t// in\n    tag_38:\n    tag_37:\n      0x01\n      swap1\n      sub\n      dup2\n      dup2\n      swap1\n      0x00\n      mstore\n      keccak256(0x00, 0x20)\n      add\n      0x00\n      tag_41\n      swap2\n      swap1\n      tag_42\n      jump\t// in\n    tag_41:\n      swap1\n      sstore\n        /* \"exercise7.sol\":305:356  function pop() public {... */\n      jump\t// out\n    tag_42:\n      pop\n      dup1\n      sload\n      tag_43\n      swap1\n      tag_24\n      jump\t// in\n    tag_43:\n      0x00\n      dup3\n      sstore\n      dup1\n      0x1f\n      lt\n      tag_45\n      jumpi\n      pop\n      jump(tag_44)\n    tag_45:\n      0x1f\n      add\n      0x20\n      swap1\n      div\n      swap1\n      0x00\n      mstore\n      keccak256(0x00, 0x20)\n      swap1\n      dup2\n      add\n      swap1\n      tag_46\n      swap2\n      swap1\n      tag_47\n      jump\t// in\n    tag_46:\n    tag_44:\n      pop\n      jump\t// out\n    tag_47:\n    tag_48:\n      dup1\n      dup3\n      gt\n      iszero\n      tag_49\n      jumpi\n      0x00\n      dup2\n      0x00\n      swap1\n      sstore\n      pop\n      0x01\n      add\n      jump(tag_48)\n    tag_49:\n      pop\n      swap1\n      jump\t// out\n        /* \"#utility.yul\":7:131   */\n    tag_50:\n        /* \"#utility.yul\":84:90   */\n      0x00\n        /* \"#utility.yul\":118:123   */\n      dup2\n        /* \"#utility.yul\":112:124   */\n      mload\n        /* \"#utility.yul\":102:124   */\n      swap1\n      pop\n        /* \"#utility.yul\":7:131   */\n      swap2\n      swap1\n      pop\n      jump\t// out\n        /* \"#utility.yul\":137:331   */\n    tag_51:\n        /* \"#utility.yul\":246:257   */\n      0x00\n        /* \"#utility.yul\":280:286   */\n      dup3\n        /* \"#utility.yul\":275:278   */\n      dup3\n        /* \"#utility.yul\":268:287   */\n      mstore\n        /* \"#utility.yul\":320:324   */\n      0x20\n        /* \"#utility.yul\":315:318   */\n      dup3\n        /* \"#utility.yul\":311:325   */\n      add\n        /* \"#utility.yul\":296:325   */\n      swap1\n      pop\n        /* \"#utility.yul\":137:331   */\n      swap3\n      swap2\n      pop\n      pop\n      jump\t// out\n        /* \"#utility.yul\":337:479   */\n    tag_52:\n        /* \"#utility.yul\":414:418   */\n      0x00\n        /* \"#utility.yul\":437:440   */\n      dup2\n        /* \"#utility.yul\":429:440   */\n      swap1\n      pop\n        /* \"#utility.yul\":467:471   */\n      0x20\n        /* \"#utility.yul\":462:465   */\n      dup3\n        /* \"#utility.yul\":458:472   */\n      add\n        /* \"#utility.yul\":450:472   */\n      swap1\n      pop\n        /* \"#utility.yul\":337:479   */\n      swap2\n      swap1\n      pop\n      jump\t// out\n        /* \"#utility.yul\":485:584   */\n    tag_53:\n        /* \"#utility.yul\":537:543   */\n      0x00\n        /* \"#utility.yul\":571:576   */\n      dup2\n        /* \"#utility.yul\":565:577   */\n      mload\n        /* \"#utility.yul\":555:577   */\n      swap1\n      pop\n        /* \"#utility.yul\":485:584   */\n      swap2\n      swap1\n      pop\n      jump\t// out\n        /* \"#utility.yul\":590:749   */\n    tag_54:\n        /* \"#utility.yul\":664:675   */\n      0x00\n        /* \"#utility.yul\":698:704   */\n      dup3\n        /* \"#utility.yul\":693:696   */\n      dup3\n        /* \"#utility.yul\":686:705   */\n      mstore\n        /* \"#utility.yul\":738:742   */\n      0x20\n        /* \"#utility.yul\":733:736   */\n      dup3\n        /* \"#utility.yul\":729:743   */\n      add\n        /* \"#utility.yul\":714:743   */\n      swap1\n      pop\n        /* \"#utility.yul\":590:749   */\n      swap3\n      swap2\n      pop\n      pop\n      jump\t// out\n        /* \"#utility.yul\":755:1001   */\n    tag_55:\n        /* \"#utility.yul\":836:837   */\n      0x00\n        /* \"#utility.yul\":846:959   */\n    tag_87:\n        /* \"#utility.yul\":860:866   */\n      dup4\n        /* \"#utility.yul\":857:858   */\n      dup2\n        /* \"#utility.yul\":854:867   */\n      lt\n        /* \"#utility.yul\":846:959   */\n      iszero\n      tag_89\n      jumpi\n        /* \"#utility.yul\":945:946   */\n      dup1\n        /* \"#utility.yul\":940:943   */\n      dup3\n        /* \"#utility.yul\":936:947   */\n      add\n        /* \"#utility.yul\":930:948   */\n      mload\n        /* \"#utility.yul\":926:927   */\n      dup2\n        /* \"#utility.yul\":921:924   */\n      dup5\n        /* \"#utility.yul\":917:928   */\n      add\n        /* \"#utility.yul\":910:949   */\n      mstore\n        /* \"#utility.yul\":882:884   */\n      0x20\n        /* \"#utility.yul\":879:880   */\n      dup2\n        /* \"#utility.yul\":875:885   */\n      add\n        /* \"#utility.yul\":870:885   */\n      swap1\n      pop\n        /* \"#utility.yul\":846:959   */\n      jump(tag_87)\n    tag_89:\n        /* \"#utility.yul\":993:994   */\n      0x00\n        /* \"#utility.yul\":984:990   */\n      dup5\n        /* \"#utility.yul\":979:982   */\n      dup5\n        /* \"#utility.yul\":975:991   */\n      add\n        /* \"#utility.yul\":968:995   */\n      mstore\n        /* \"#utility.yul\":817:1001   */\n      pop\n        /* \"#utility.yul\":755:1001   */\n      pop\n      pop\n      pop\n      jump\t// out\n        /* \"#utility.yul\":1007:1109   */\n    tag_56:\n        /* \"#utility.yul\":1048:1054   */\n      0x00\n        /* \"#utility.yul\":1099:1101   */\n      0x1f\n        /* \"#utility.yul\":1095:1102   */\n      not\n        /* \"#utility.yul\":1090:1092   */\n      0x1f\n        /* \"#utility.yul\":1083:1088   */\n      dup4\n        /* \"#utility.yul\":1079:1093   */\n      add\n        /* \"#utility.yul\":1075:1103   */\n      and\n        /* \"#utility.yul\":1065:1103   */\n      swap1\n      pop\n        /* \"#utility.yul\":1007:1109   */\n      swap2\n      swap1\n      pop\n      jump\t// out\n        /* \"#utility.yul\":1115:1472   */\n    tag_57:\n        /* \"#utility.yul\":1193:1196   */\n      0x00\n        /* \"#utility.yul\":1221:1260   */\n      tag_92\n        /* \"#utility.yul\":1254:1259   */\n      dup3\n        /* \"#utility.yul\":1221:1260   */\n      tag_53\n      jump\t// in\n    tag_92:\n        /* \"#utility.yul\":1276:1337   */\n      tag_93\n        /* \"#utility.yul\":1330:1336   */\n      dup2\n        /* \"#utility.yul\":1325:1328   */\n      dup6\n        /* \"#utility.yul\":1276:1337   */\n      tag_54\n      jump\t// in\n    tag_93:\n        /* \"#utility.yul\":1269:1337   */\n      swap4\n      pop\n        /* \"#utility.yul\":1346:1411   */\n      tag_94\n        /* \"#utility.yul\":1404:1410   */\n      dup2\n        /* \"#utility.yul\":1399:1402   */\n      dup6\n        /* \"#utility.yul\":1392:1396   */\n      0x20\n        /* \"#utility.yul\":1385:1390   */\n      dup7\n        /* \"#utility.yul\":1381:1397   */\n      add\n        /* \"#utility.yul\":1346:1411   */\n      tag_55\n      jump\t// in\n    tag_94:\n        /* \"#utility.yul\":1436:1465   */\n      tag_95\n        /* \"#utility.yul\":1458:1464   */\n      dup2\n        /* \"#utility.yul\":1436:1465   */\n      tag_56\n      jump\t// in\n    tag_95:\n        /* \"#utility.yul\":1431:1434   */\n      dup5\n        /* \"#utility.yul\":1427:1466   */\n      add\n        /* \"#utility.yul\":1420:1466   */\n      swap2\n      pop\n        /* \"#utility.yul\":1197:1472   */\n      pop\n        /* \"#utility.yul\":1115:1472   */\n      swap3\n      swap2\n      pop\n      pop\n      jump\t// out\n        /* \"#utility.yul\":1478:1674   */\n    tag_58:\n        /* \"#utility.yul\":1567:1577   */\n      0x00\n        /* \"#utility.yul\":1602:1668   */\n      tag_97\n        /* \"#utility.yul\":1664:1667   */\n      dup4\n        /* \"#utility.yul\":1656:1662   */\n      dup4\n        /* \"#utility.yul\":1602:1668   */\n      tag_57\n      jump\t// in\n    tag_97:\n        /* \"#utility.yul\":1588:1668   */\n      swap1\n      pop\n        /* \"#utility.yul\":1478:1674   */\n      swap3\n      swap2\n      pop\n      pop\n      jump\t// out\n        /* \"#utility.yul\":1680:1803   */\n    tag_59:\n        /* \"#utility.yul\":1760:1764   */\n      0x00\n        /* \"#utility.yul\":1792:1796   */\n      0x20\n        /* \"#utility.yul\":1787:1790   */\n      dup3\n        /* \"#utility.yul\":1783:1797   */\n      add\n        /* \"#utility.yul\":1775:1797   */\n      swap1\n      pop\n        /* \"#utility.yul\":1680:1803   */\n      swap2\n      swap1\n      pop\n      jump\t// out\n        /* \"#utility.yul\":1837:2828   */\n    tag_60:\n        /* \"#utility.yul\":1976:1979   */\n      0x00\n        /* \"#utility.yul\":2005:2069   */\n      tag_100\n        /* \"#utility.yul\":2063:2068   */\n      dup3\n        /* \"#utility.yul\":2005:2069   */\n      tag_50\n      jump\t// in\n    tag_100:\n        /* \"#utility.yul\":2085:2181   */\n      tag_101\n        /* \"#utility.yul\":2174:2180   */\n      dup2\n        /* \"#utility.yul\":2169:2172   */\n      dup6\n        /* \"#utility.yul\":2085:2181   */\n      tag_51\n      jump\t// in\n    tag_101:\n        /* \"#utility.yul\":2078:2181   */\n      swap4\n      pop\n        /* \"#utility.yul\":2207:2210   */\n      dup4\n        /* \"#utility.yul\":2252:2256   */\n      0x20\n        /* \"#utility.yul\":2244:2250   */\n      dup3\n        /* \"#utility.yul\":2240:2257   */\n      mul\n        /* \"#utility.yul\":2235:2238   */\n      dup6\n        /* \"#utility.yul\":2231:2258   */\n      add\n        /* \"#utility.yul\":2282:2348   */\n      tag_102\n        /* \"#utility.yul\":2342:2347   */\n      dup6\n        /* \"#utility.yul\":2282:2348   */\n      tag_52\n      jump\t// in\n    tag_102:\n        /* \"#utility.yul\":2371:2378   */\n      dup1\n        /* \"#utility.yul\":2402:2403   */\n      0x00\n        /* \"#utility.yul\":2387:2783   */\n    tag_103:\n        /* \"#utility.yul\":2412:2418   */\n      dup6\n        /* \"#utility.yul\":2409:2410   */\n      dup2\n        /* \"#utility.yul\":2406:2419   */\n      lt\n        /* \"#utility.yul\":2387:2783   */\n      iszero\n      tag_105\n      jumpi\n        /* \"#utility.yul\":2483:2492   */\n      dup5\n        /* \"#utility.yul\":2477:2481   */\n      dup5\n        /* \"#utility.yul\":2473:2493   */\n      sub\n        /* \"#utility.yul\":2468:2471   */\n      dup10\n        /* \"#utility.yul\":2461:2494   */\n      mstore\n        /* \"#utility.yul\":2534:2540   */\n      dup2\n        /* \"#utility.yul\":2528:2541   */\n      mload\n        /* \"#utility.yul\":2562:2646   */\n      tag_106\n        /* \"#utility.yul\":2641:2645   */\n      dup6\n        /* \"#utility.yul\":2626:2639   */\n      dup3\n        /* \"#utility.yul\":2562:2646   */\n      tag_58\n      jump\t// in\n    tag_106:\n        /* \"#utility.yul\":2554:2646   */\n      swap5\n      pop\n        /* \"#utility.yul\":2669:2739   */\n      tag_107\n        /* \"#utility.yul\":2732:2738   */\n      dup4\n        /* \"#utility.yul\":2669:2739   */\n      tag_59\n      jump\t// in\n    tag_107:\n        /* \"#utility.yul\":2659:2739   */\n      swap3\n      pop\n        /* \"#utility.yul\":2768:2772   */\n      0x20\n        /* \"#utility.yul\":2763:2766   */\n      dup11\n        /* \"#utility.yul\":2759:2773   */\n      add\n        /* \"#utility.yul\":2752:2773   */\n      swap10\n      pop\n        /* \"#utility.yul\":2447:2783   */\n      pop\n        /* \"#utility.yul\":2434:2435   */\n      0x01\n        /* \"#utility.yul\":2431:2432   */\n      dup2\n        /* \"#utility.yul\":2427:2436   */\n      add\n        /* \"#utility.yul\":2422:2436   */\n      swap1\n      pop\n        /* \"#utility.yul\":2387:2783   */\n      jump(tag_103)\n    tag_105:\n        /* \"#utility.yul\":2391:2405   */\n      pop\n        /* \"#utility.yul\":2799:2803   */\n      dup3\n        /* \"#utility.yul\":2792:2803   */\n      swap8\n      pop\n        /* \"#utility.yul\":2819:2822   */\n      dup8\n        /* \"#utility.yul\":2812:2822   */\n      swap6\n      pop\n        /* \"#utility.yul\":1981:2828   */\n      pop\n      pop\n      pop\n      pop\n      pop\n        /* \"#utility.yul\":1837:2828   */\n      swap3\n      swap2\n      pop\n      pop\n      jump\t// out\n        /* \"#utility.yul\":2834:3247   */\n    tag_10:\n        /* \"#utility.yul\":2997:3001   */\n      0x00\n        /* \"#utility.yul\":3035:3037   */\n      0x20\n        /* \"#utility.yul\":3024:3033   */\n      dup3\n        /* \"#utility.yul\":3020:3038   */\n      add\n        /* \"#utility.yul\":3012:3038   */\n      swap1\n      pop\n        /* \"#utility.yul\":3084:3093   */\n      dup2\n        /* \"#utility.yul\":3078:3082   */\n      dup2\n        /* \"#utility.yul\":3074:3094   */\n      sub\n        /* \"#utility.yul\":3070:3071   */\n      0x00\n        /* \"#utility.yul\":3059:3068   */\n      dup4\n        /* \"#utility.yul\":3055:3072   */\n      add\n        /* \"#utility.yul\":3048:3095   */\n      mstore\n        /* \"#utility.yul\":3112:3240   */\n      tag_109\n        /* \"#utility.yul\":3235:3239   */\n      dup2\n        /* \"#utility.yul\":3226:3232   */\n      dup5\n        /* \"#utility.yul\":3112:3240   */\n      tag_60\n      jump\t// in\n    tag_109:\n        /* \"#utility.yul\":3104:3240   */\n      swap1\n      pop\n        /* \"#utility.yul\":2834:3247   */\n      swap3\n      swap2\n      pop\n      pop\n      jump\t// out\n        /* \"#utility.yul\":3253:3330   */\n    tag_61:\n        /* \"#utility.yul\":3290:3297   */\n      0x00\n        /* \"#utility.yul\":3319:3324   */\n      dup2\n        /* \"#utility.yul\":3308:3324   */\n      swap1\n      pop\n        /* \"#utility.yul\":3253:3330   */\n      swap2\n      swap1\n      pop\n      jump\t// out\n        /* \"#utility.yul\":3336:3454   */\n    tag_62:\n        /* \"#utility.yul\":3423:3447   */\n      tag_112\n        /* \"#utility.yul\":3441:3446   */\n      dup2\n        /* \"#utility.yul\":3423:3447   */\n      tag_61\n      jump\t// in\n    tag_112:\n        /* \"#utility.yul\":3418:3421   */\n      dup3\n        /* \"#utility.yul\":3411:3448   */\n      mstore\n        /* \"#utility.yul\":3336:3454   */\n      pop\n      pop\n      jump\t// out\n        /* \"#utility.yul\":3460:3682   */\n    tag_14:\n        /* \"#utility.yul\":3553:3557   */\n      0x00\n        /* \"#utility.yul\":3591:3593   */\n      0x20\n        /* \"#utility.yul\":3580:3589   */\n      dup3\n        /* \"#utility.yul\":3576:3594   */\n      add\n        /* \"#utility.yul\":3568:3594   */\n      swap1\n      pop\n        /* \"#utility.yul\":3604:3675   */\n      tag_114\n        /* \"#utility.yul\":3672:3673   */\n      0x00\n        /* \"#utility.yul\":3661:3670   */\n      dup4\n        /* \"#utility.yul\":3657:3674   */\n      add\n        /* \"#utility.yul\":3648:3654   */\n      dup5\n        /* \"#utility.yul\":3604:3675   */\n      tag_62\n      jump\t// in\n    tag_114:\n        /* \"#utility.yul\":3460:3682   */\n      swap3\n      swap2\n      pop\n      pop\n      jump\t// out\n        /* \"#utility.yul\":3688:3868   */\n    tag_63:\n        /* \"#utility.yul\":3736:3813   */\n      0x4e487b7100000000000000000000000000000000000000000000000000000000\n        /* \"#utility.yul\":3733:3734   */\n      0x00\n        /* \"#utility.yul\":3726:3814   */\n      mstore\n        /* \"#utility.yul\":3833:3837   */\n      0x22\n        /* \"#utility.yul\":3830:3831   */\n      0x04\n        /* \"#utility.yul\":3823:3838   */\n      mstore\n        /* \"#utility.yul\":3857:3861   */\n      0x24\n        /* \"#utility.yul\":3854:3855   */\n      0x00\n        /* \"#utility.yul\":3847:3862   */\n      revert\n        /* \"#utility.yul\":3874:4194   */\n    tag_24:\n        /* \"#utility.yul\":3918:3924   */\n      0x00\n        /* \"#utility.yul\":3955:3956   */\n      0x02\n        /* \"#utility.yul\":3949:3953   */\n      dup3\n        /* \"#utility.yul\":3945:3957   */\n      div\n        /* \"#utility.yul\":3935:3957   */\n      swap1\n      pop\n        /* \"#utility.yul\":4002:4003   */\n      0x01\n        /* \"#utility.yul\":3996:4000   */\n      dup3\n        /* \"#utility.yul\":3992:4004   */\n      and\n        /* \"#utility.yul\":4023:4041   */\n      dup1\n        /* \"#utility.yul\":4013:4094   */\n      tag_117\n      jumpi\n        /* \"#utility.yul\":4079:4083   */\n      0x7f\n        /* \"#utility.yul\":4071:4077   */\n      dup3\n        /* \"#utility.yul\":4067:4084   */\n      and\n        /* \"#utility.yul\":4057:4084   */\n      swap2\n      pop\n        /* \"#utility.yul\":4013:4094   */\n    tag_117:\n        /* \"#utility.yul\":4141:4143   */\n      0x20\n        /* \"#utility.yul\":4133:4139   */\n      dup3\n        /* \"#utility.yul\":4130:4144   */\n      lt\n        /* \"#utility.yul\":4110:4128   */\n      dup2\n        /* \"#utility.yul\":4107:4145   */\n      sub\n        /* \"#utility.yul\":4104:4188   */\n      tag_118\n      jumpi\n        /* \"#utility.yul\":4160:4178   */\n      tag_119\n      tag_63\n      jump\t// in\n    tag_119:\n        /* \"#utility.yul\":4104:4188   */\n    tag_118:\n        /* \"#utility.yul\":3925:4194   */\n      pop\n        /* \"#utility.yul\":3874:4194   */\n      swap2\n      swap1\n      pop\n      jump\t// out\n        /* \"#utility.yul\":4200:4380   */\n    tag_64:\n        /* \"#utility.yul\":4248:4325   */\n      0x4e487b7100000000000000000000000000000000000000000000000000000000\n        /* \"#utility.yul\":4245:4246   */\n      0x00\n        /* \"#utility.yul\":4238:4326   */\n      mstore\n        /* \"#utility.yul\":4345:4349   */\n      0x41\n        /* \"#utility.yul\":4342:4343   */\n      0x04\n        /* \"#utility.yul\":4335:4350   */\n      mstore\n        /* \"#utility.yul\":4369:4373   */\n      0x24\n        /* \"#utility.yul\":4366:4367   */\n      0x00\n        /* \"#utility.yul\":4359:4374   */\n      revert\n        /* \"#utility.yul\":4386:4527   */\n    tag_65:\n        /* \"#utility.yul\":4435:4439   */\n      0x00\n        /* \"#utility.yul\":4458:4461   */\n      dup2\n        /* \"#utility.yul\":4450:4461   */\n      swap1\n      pop\n        /* \"#utility.yul\":4481:4484   */\n      dup2\n        /* \"#utility.yul\":4478:4479   */\n      0x00\n        /* \"#utility.yul\":4471:4485   */\n      mstore\n        /* \"#utility.yul\":4515:4519   */\n      0x20\n        /* \"#utility.yul\":4512:4513   */\n      0x00\n        /* \"#utility.yul\":4502:4520   */\n      keccak256\n        /* \"#utility.yul\":4494:4520   */\n      swap1\n      pop\n        /* \"#utility.yul\":4386:4527   */\n      swap2\n      swap1\n      pop\n      jump\t// out\n        /* \"#utility.yul\":4533:4626   */\n    tag_66:\n        /* \"#utility.yul\":4570:4576   */\n      0x00\n        /* \"#utility.yul\":4617:4619   */\n      0x20\n        /* \"#utility.yul\":4612:4614   */\n      0x1f\n        /* \"#utility.yul\":4605:4610   */\n      dup4\n        /* \"#utility.yul\":4601:4615   */\n      add\n        /* \"#utility.yul\":4597:4620   */\n      div\n        /* \"#utility.yul\":4587:4620   */\n      swap1\n      pop\n        /* \"#utility.yul\":4533:4626   */\n      swap2\n      swap1\n      pop\n      jump\t// out\n        /* \"#utility.yul\":4632:4739   */\n    tag_67:\n        /* \"#utility.yul\":4676:4684   */\n      0x00\n        /* \"#utility.yul\":4726:4731   */\n      dup3\n        /* \"#utility.yul\":4720:4724   */\n      dup3\n        /* \"#utility.yul\":4716:4732   */\n      shl\n        /* \"#utility.yul\":4695:4732   */\n      swap1\n      pop\n        /* \"#utility.yul\":4632:4739   */\n      swap3\n      swap2\n      pop\n      pop\n      jump\t// out\n        /* \"#utility.yul\":4745:5138   */\n    tag_68:\n        /* \"#utility.yul\":4814:4820   */\n      0x00\n        /* \"#utility.yul\":4864:4865   */\n      0x08\n        /* \"#utility.yul\":4852:4862   */\n      dup4\n        /* \"#utility.yul\":4848:4866   */\n      mul\n        /* \"#utility.yul\":4887:4984   */\n      tag_125\n        /* \"#utility.yul\":4917:4983   */\n      0xffffffffffffffffffffffffffffffffffffffffffffffffffffffffffffffff\n        /* \"#utility.yul\":4906:4915   */\n      dup3\n        /* \"#utility.yul\":4887:4984   */\n      tag_67\n      jump\t// in\n    tag_125:\n        /* \"#utility.yul\":5005:5044   */\n      tag_126\n        /* \"#utility.yul\":5035:5043   */\n      dup7\n        /* \"#utility.yul\":5024:5033   */\n      dup4\n        /* \"#utility.yul\":5005:5044   */\n      tag_67\n      jump\t// in\n    tag_126:\n        /* \"#utility.yul\":4993:5044   */\n      swap6\n      pop\n        /* \"#utility.yul\":5077:5081   */\n      dup1\n        /* \"#utility.yul\":5073:5082   */\n      not\n        /* \"#utility.yul\":5066:5071   */\n      dup5\n        /* \"#utility.yul\":5062:5083   */\n      and\n        /* \"#utility.yul\":5053:5083   */\n      swap4\n      pop\n        /* \"#utility.yul\":5126:5130   */\n      dup1\n        /* \"#utility.yul\":5116:5124   */\n      dup7\n        /* \"#utility.yul\":5112:5131   */\n      and\n        /* \"#utility.yul\":5105:5110   */\n      dup5\n        /* \"#utility.yul\":5102:5132   */\n      or\n        /* \"#utility.yul\":5092:5132   */\n      swap3\n      pop\n        /* \"#utility.yul\":4821:5138   */\n      pop\n      pop\n        /* \"#utility.yul\":4745:5138   */\n      swap4\n      swap3\n      pop\n      pop\n      pop\n      jump\t// out\n        /* \"#utility.yul\":5144:5204   */\n    tag_69:\n        /* \"#utility.yul\":5172:5175   */\n      0x00\n        /* \"#utility.yul\":5193:5198   */\n      dup2\n        /* \"#utility.yul\":5186:5198   */\n      swap1\n      pop\n        /* \"#utility.yul\":5144:5204   */\n      swap2\n      swap1\n      pop\n      jump\t// out\n        /* \"#utility.yul\":5210:5352   */\n    tag_70:\n        /* \"#utility.yul\":5260:5269   */\n      0x00\n        /* \"#utility.yul\":5293:5346   */\n      tag_129\n        /* \"#utility.yul\":5311:5345   */\n      tag_130\n        /* \"#utility.yul\":5320:5344   */\n      tag_131\n        /* \"#utility.yul\":5338:5343   */\n      dup5\n        /* \"#utility.yul\":5320:5344   */\n      tag_61\n      jump\t// in\n    tag_131:\n        /* \"#utility.yul\":5311:5345   */\n      tag_69\n      jump\t// in\n    tag_130:\n        /* \"#utility.yul\":5293:5346   */\n      tag_61\n      jump\t// in\n    tag_129:\n        /* \"#utility.yul\":5280:5346   */\n      swap1\n      pop\n        /* \"#utility.yul\":5210:5352   */\n      swap2\n      swap1\n      pop\n      jump\t// out\n        /* \"#utility.yul\":5358:5433   */\n    tag_71:\n        /* \"#utility.yul\":5401:5404   */\n      0x00\n        /* \"#utility.yul\":5422:5427   */\n      dup2\n        /* \"#utility.yul\":5415:5427   */\n      swap1\n      pop\n        /* \"#utility.yul\":5358:5433   */\n      swap2\n      swap1\n      pop\n      jump\t// out\n        /* \"#utility.yul\":5439:5708   */\n    tag_72:\n        /* \"#utility.yul\":5549:5588   */\n      tag_134\n        /* \"#utility.yul\":5580:5587   */\n      dup4\n        /* \"#utility.yul\":5549:5588   */\n      tag_70\n      jump\t// in\n    tag_134:\n        /* \"#utility.yul\":5610:5701   */\n      tag_135\n        /* \"#utility.yul\":5659:5700   */\n      tag_136\n        /* \"#utility.yul\":5683:5699   */\n      dup3\n        /* \"#utility.yul\":5659:5700   */\n      tag_71\n      jump\t// in\n    tag_136:\n        /* \"#utility.yul\":5651:5657   */\n      dup5\n        /* \"#utility.yul\":5644:5648   */\n      dup5\n        /* \"#utility.yul\":5638:5649   */\n      sload\n        /* \"#utility.yul\":5610:5701   */\n      tag_68\n      jump\t// in\n    tag_135:\n        /* \"#utility.yul\":5604:5608   */\n      dup3\n        /* \"#utility.yul\":5597:5702   */\n      sstore\n        /* \"#utility.yul\":5515:5708   */\n      pop\n        /* \"#utility.yul\":5439:5708   */\n      pop\n      pop\n      pop\n      jump\t// out\n        /* \"#utility.yul\":5714:5787   */\n    tag_73:\n        /* \"#utility.yul\":5759:5762   */\n      0x00\n        /* \"#utility.yul\":5714:5787   */\n      swap1\n      jump\t// out\n        /* \"#utility.yul\":5793:5982   */\n    tag_74:\n        /* \"#utility.yul\":5870:5902   */\n      tag_139\n      tag_73\n      jump\t// in\n    tag_139:\n        /* \"#utility.yul\":5911:5976   */\n      tag_140\n        /* \"#utility.yul\":5969:5975   */\n      dup2\n        /* \"#utility.yul\":5961:5967   */\n      dup5\n        /* \"#utility.yul\":5955:5959   */\n      dup5\n        /* \"#utility.yul\":5911:5976   */\n      tag_72\n      jump\t// in\n    tag_140:\n        /* \"#utility.yul\":5846:5982   */\n      pop\n        /* \"#utility.yul\":5793:5982   */\n      pop\n      pop\n      jump\t// out\n        /* \"#utility.yul\":5988:6174   */\n    tag_75:\n        /* \"#utility.yul\":6048:6168   */\n    tag_142:\n        /* \"#utility.yul\":6065:6068   */\n      dup2\n        /* \"#utility.yul\":6058:6063   */\n      dup2\n        /* \"#utility.yul\":6055:6069   */\n      lt\n        /* \"#utility.yul\":6048:6168   */\n      iszero\n      tag_144\n      jumpi\n        /* \"#utility.yul\":6119:6158   */\n      tag_145\n        /* \"#utility.yul\":6156:6157   */\n      0x00\n        /* \"#utility.yul\":6149:6154   */\n      dup3\n        /* \"#utility.yul\":6119:6158   */\n      tag_74\n      jump\t// in\n    tag_145:\n        /* \"#utility.yul\":6092:6093   */\n      0x01\n        /* \"#utility.yul\":6085:6090   */\n      dup2\n        /* \"#utility.yul\":6081:6094   */\n      add\n        /* \"#utility.yul\":6072:6094   */\n      swap1\n      pop\n        /* \"#utility.yul\":6048:6168   */\n      jump(tag_142)\n    tag_144:\n        /* \"#utility.yul\":5988:6174   */\n      pop\n      pop\n      jump\t// out\n        /* \"#utility.yul\":6180:6723   */\n    tag_76:\n        /* \"#utility.yul\":6281:6283   */\n      0x1f\n        /* \"#utility.yul\":6276:6279   */\n      dup3\n        /* \"#utility.yul\":6273:6284   */\n      gt\n        /* \"#utility.yul\":6270:6716   */\n      iszero\n      tag_147\n      jumpi\n        /* \"#utility.yul\":6315:6353   */\n      tag_148\n        /* \"#utility.yul\":6347:6352   */\n      dup2\n        /* \"#utility.yul\":6315:6353   */\n      tag_65\n      jump\t// in\n    tag_148:\n        /* \"#utility.yul\":6399:6428   */\n      tag_149\n        /* \"#utility.yul\":6417:6427   */\n      dup5\n        /* \"#utility.yul\":6399:6428   */\n      tag_66\n      jump\t// in\n    tag_149:\n        /* \"#utility.yul\":6389:6397   */\n      dup2\n        /* \"#utility.yul\":6385:6429   */\n      add\n        /* \"#utility.yul\":6582:6584   */\n      0x20\n        /* \"#utility.yul\":6570:6580   */\n      dup6\n        /* \"#utility.yul\":6567:6585   */\n      lt\n        /* \"#utility.yul\":6564:6613   */\n      iszero\n      tag_150\n      jumpi\n        /* \"#utility.yul\":6603:6611   */\n      dup2\n        /* \"#utility.yul\":6588:6611   */\n      swap1\n      pop\n        /* \"#utility.yul\":6564:6613   */\n    tag_150:\n        /* \"#utility.yul\":6626:6706   */\n      tag_151\n        /* \"#utility.yul\":6682:6704   */\n      tag_152\n        /* \"#utility.yul\":6700:6703   */\n      dup6\n        /* \"#utility.yul\":6682:6704   */\n      tag_66\n      jump\t// in\n    tag_152:\n        /* \"#utility.yul\":6672:6680   */\n      dup4\n        /* \"#utility.yul\":6668:6705   */\n      add\n        /* \"#utility.yul\":6655:6666   */\n      dup3\n        /* \"#utility.yul\":6626:6706   */\n      tag_75\n      jump\t// in\n    tag_151:\n        /* \"#utility.yul\":6285:6716   */\n      pop\n      pop\n        /* \"#utility.yul\":6270:6716   */\n    tag_147:\n        /* \"#utility.yul\":6180:6723   */\n      pop\n      pop\n      pop\n      jump\t// out\n        /* \"#utility.yul\":6729:6846   */\n    tag_77:\n        /* \"#utility.yul\":6783:6791   */\n      0x00\n        /* \"#utility.yul\":6833:6838   */\n      dup3\n        /* \"#utility.yul\":6827:6831   */\n      dup3\n        /* \"#utility.yul\":6823:6839   */\n      shr\n        /* \"#utility.yul\":6802:6839   */\n      swap1\n      pop\n        /* \"#utility.yul\":6729:6846   */\n      swap3\n      swap2\n      pop\n      pop\n      jump\t// out\n        /* \"#utility.yul\":6852:7021   */\n    tag_78:\n        /* \"#utility.yul\":6896:6902   */\n      0x00\n        /* \"#utility.yul\":6929:6980   */\n      tag_155\n        /* \"#utility.yul\":6977:6978   */\n      0x00\n        /* \"#utility.yul\":6973:6979   */\n      not\n        /* \"#utility.yul\":6965:6970   */\n      dup5\n        /* \"#utility.yul\":6962:6963   */\n      0x08\n        /* \"#utility.yul\":6958:6971   */\n      mul\n        /* \"#utility.yul\":6929:6980   */\n      tag_77\n      jump\t// in\n    tag_155:\n        /* \"#utility.yul\":6925:6981   */\n      not\n        /* \"#utility.yul\":7010:7014   */\n      dup1\n        /* \"#utility.yul\":7004:7008   */\n      dup4\n        /* \"#utility.yul\":7000:7015   */\n      and\n        /* \"#utility.yul\":6990:7015   */\n      swap2\n      pop\n        /* \"#utility.yul\":6903:7021   */\n      pop\n        /* \"#utility.yul\":6852:7021   */\n      swap3\n      swap2\n      pop\n      pop\n      jump\t// out\n        /* \"#utility.yul\":7026:7321   */\n    tag_79:\n        /* \"#utility.yul\":7102:7106   */\n      0x00\n        /* \"#utility.yul\":7248:7277   */\n      tag_157\n        /* \"#utility.yul\":7273:7276   */\n      dup4\n        /* \"#utility.yul\":7267:7271   */\n      dup4\n        /* \"#utility.yul\":7248:7277   */\n      tag_78\n      jump\t// in\n    tag_157:\n        /* \"#utility.yul\":7240:7277   */\n      swap2\n      pop\n        /* \"#utility.yul\":7310:7313   */\n      dup3\n        /* \"#utility.yul\":7307:7308   */\n      0x02\n        /* \"#utility.yul\":7303:7314   */\n      mul\n        /* \"#utility.yul\":7297:7301   */\n      dup3\n        /* \"#utility.yul\":7294:7315   */\n      or\n        /* \"#utility.yul\":7286:7315   */\n      swap1\n      pop\n        /* \"#utility.yul\":7026:7321   */\n      swap3\n      swap2\n      pop\n      pop\n      jump\t// out\n        /* \"#utility.yul\":7326:8721   */\n    tag_33:\n        /* \"#utility.yul\":7443:7480   */\n      tag_159\n        /* \"#utility.yul\":7476:7479   */\n      dup3\n        /* \"#utility.yul\":7443:7480   */\n      tag_53\n      jump\t// in\n    tag_159:\n        /* \"#utility.yul\":7545:7563   */\n      0xffffffffffffffff\n        /* \"#utility.yul\":7537:7543   */\n      dup2\n        /* \"#utility.yul\":7534:7564   */\n      gt\n        /* \"#utility.yul\":7531:7587   */\n      iszero\n      tag_160\n      jumpi\n        /* \"#utility.yul\":7567:7585   */\n      tag_161\n      tag_64\n      jump\t// in\n    tag_161:\n        /* \"#utility.yul\":7531:7587   */\n    tag_160:\n        /* \"#utility.yul\":7611:7649   */\n      tag_162\n        /* \"#utility.yul\":7643:7647   */\n      dup3\n        /* \"#utility.yul\":7637:7648   */\n      sload\n        /* \"#utility.yul\":7611:7649   */\n      tag_24\n      jump\t// in\n    tag_162:\n        /* \"#utility.yul\":7696:7763   */\n      tag_163\n        /* \"#utility.yul\":7756:7762   */\n      dup3\n        /* \"#utility.yul\":7748:7754   */\n      dup3\n        /* \"#utility.yul\":7742:7746   */\n      dup6\n        /* \"#utility.yul\":7696:7763   */\n      tag_76\n      jump\t// in\n    tag_163:\n        /* \"#utility.yul\":7790:7791   */\n      0x00\n        /* \"#utility.yul\":7814:7818   */\n      0x20\n        /* \"#utility.yul\":7801:7818   */\n      swap1\n      pop\n        /* \"#utility.yul\":7846:7848   */\n      0x1f\n        /* \"#utility.yul\":7838:7844   */\n      dup4\n        /* \"#utility.yul\":7835:7849   */\n      gt\n        /* \"#utility.yul\":7863:7864   */\n      0x01\n        /* \"#utility.yul\":7858:8476   */\n      dup2\n      eq\n      tag_165\n      jumpi\n        /* \"#utility.yul\":8520:8521   */\n      0x00\n        /* \"#utility.yul\":8537:8543   */\n      dup5\n        /* \"#utility.yul\":8534:8611   */\n      iszero\n      tag_166\n      jumpi\n        /* \"#utility.yul\":8586:8595   */\n      dup3\n        /* \"#utility.yul\":8581:8584   */\n      dup8\n        /* \"#utility.yul\":8577:8596   */\n      add\n        /* \"#utility.yul\":8571:8597   */\n      mload\n        /* \"#utility.yul\":8562:8597   */\n      swap1\n      pop\n        /* \"#utility.yul\":8534:8611   */\n    tag_166:\n        /* \"#utility.yul\":8637:8704   */\n      tag_167\n        /* \"#utility.yul\":8697:8703   */\n      dup6\n        /* \"#utility.yul\":8690:8695   */\n      dup3\n        /* \"#utility.yul\":8637:8704   */\n      tag_79\n      jump\t// in\n    tag_167:\n        /* \"#utility.yul\":8631:8635   */\n      dup7\n        /* \"#utility.yul\":8624:8705   */\n      sstore\n        /* \"#utility.yul\":8493:8715   */\n      pop\n        /* \"#utility.yul\":7828:8715   */\n      jump(tag_164)\n        /* \"#utility.yul\":7858:8476   */\n    tag_165:\n        /* \"#utility.yul\":7910:7914   */\n      0x1f\n        /* \"#utility.yul\":7906:7915   */\n      not\n        /* \"#utility.yul\":7898:7904   */\n      dup5\n        /* \"#utility.yul\":7894:7916   */\n      and\n        /* \"#utility.yul\":7944:7981   */\n      tag_168\n        /* \"#utility.yul\":7976:7980   */\n      dup7\n        /* \"#utility.yul\":7944:7981   */\n      tag_65\n      jump\t// in\n    tag_168:\n        /* \"#utility.yul\":8003:8004   */\n      0x00\n        /* \"#utility.yul\":8017:8225   */\n    tag_169:\n        /* \"#utility.yul\":8031:8038   */\n      dup3\n        /* \"#utility.yul\":8028:8029   */\n      dup2\n        /* \"#utility.yul\":8025:8039   */\n      lt\n        /* \"#utility.yul\":8017:8225   */\n      iszero\n      tag_171\n      jumpi\n        /* \"#utility.yul\":8110:8119   */\n      dup5\n        /* \"#utility.yul\":8105:8108   */\n      dup10\n        /* \"#utility.yul\":8101:8120   */\n      add\n        /* \"#utility.yul\":8095:8121   */\n      mload\n        /* \"#utility.yul\":8087:8093   */\n      dup3\n        /* \"#utility.yul\":8080:8122   */\n      sstore\n        /* \"#utility.yul\":8161:8162   */\n      0x01\n        /* \"#utility.yul\":8153:8159   */\n      dup3\n        /* \"#utility.yul\":8149:8163   */\n      add\n        /* \"#utility.yul\":8139:8163   */\n      swap2\n      pop\n        /* \"#utility.yul\":8208:8210   */\n      0x20\n        /* \"#utility.yul\":8197:8206   */\n      dup6\n        /* \"#utility.yul\":8193:8211   */\n      add\n        /* \"#utility.yul\":8180:8211   */\n      swap5\n      pop\n        /* \"#utility.yul\":8054:8058   */\n      0x20\n        /* \"#utility.yul\":8051:8052   */\n      dup2\n        /* \"#utility.yul\":8047:8059   */\n      add\n        /* \"#utility.yul\":8042:8059   */\n      swap1\n      pop\n        /* \"#utility.yul\":8017:8225   */\n      jump(tag_169)\n    tag_171:\n        /* \"#utility.yul\":8253:8259   */\n      dup7\n        /* \"#utility.yul\":8244:8251   */\n      dup4\n        /* \"#utility.yul\":8241:8260   */\n      lt\n        /* \"#utility.yul\":8238:8417   */\n      iszero\n      tag_172\n      jumpi\n        /* \"#utility.yul\":8311:8320   */\n      dup5\n        /* \"#utility.yul\":8306:8309   */\n      dup10\n        /* \"#utility.yul\":8302:8321   */\n      add\n        /* \"#utility.yul\":8296:8322   */\n      mload\n        /* \"#utility.yul\":8354:8402   */\n      tag_173\n        /* \"#utility.yul\":8396:8400   */\n      0x1f\n        /* \"#utility.yul\":8388:8394   */\n      dup10\n        /* \"#utility.yul\":8384:8401   */\n      and\n        /* \"#utility.yul\":8373:8382   */\n      dup3\n        /* \"#utility.yul\":8354:8402   */\n      tag_78\n      jump\t// in\n    tag_173:\n        /* \"#utility.yul\":8346:8352   */\n      dup4\n        /* \"#utility.yul\":8339:8403   */\n      sstore\n        /* \"#utility.yul\":8261:8417   */\n      pop\n        /* \"#utility.yul\":8238:8417   */\n    tag_172:\n        /* \"#utility.yul\":8463:8464   */\n      0x01\n        /* \"#utility.yul\":8459:8460   */\n      0x02\n        /* \"#utility.yul\":8451:8457   */\n      dup9\n        /* \"#utility.yul\":8447:8461   */\n      mul\n        /* \"#utility.yul\":8443:8465   */\n      add\n        /* \"#utility.yul\":8437:8441   */\n      dup9\n        /* \"#utility.yul\":8430:8466   */\n      sstore\n        /* \"#utility.yul\":7865:8476   */\n      pop\n      pop\n      pop\n        /* \"#utility.yul\":7828:8715   */\n    tag_164:\n      pop\n        /* \"#utility.yul\":7418:8721   */\n      pop\n      pop\n      pop\n        /* \"#utility.yul\":7326:8721   */\n      pop\n      pop\n      jump\t// out\n        /* \"#utility.yul\":8727:8907   */\n    tag_39:\n        /* \"#utility.yul\":8775:8852   */\n      0x4e487b7100000000000000000000000000000000000000000000000000000000\n        /* \"#utility.yul\":8772:8773   */\n      0x00\n        /* \"#utility.yul\":8765:8853   */\n      mstore\n        /* \"#utility.yul\":8872:8876   */\n      0x31\n        /* \"#utility.yul\":8869:8870   */\n      0x04\n        /* \"#utility.yul\":8862:8877   */\n      mstore\n        /* \"#utility.yul\":8896:8900   */\n      0x24\n        /* \"#utility.yul\":8893:8894   */\n      0x00\n        /* \"#utility.yul\":8886:8901   */\n      revert\n\n    auxdata: 0xa26469706673582212206fadb55cb70edbf23d77f6116208e7a43748cab791fc8e05d4321d7c3a3cf8df64736f6c63430008120033\n}\n",
				"bytecode": {
					"linkReferences": {},
					"object": "608060405234801561001057600080fd5b506107ef806100206000396000f3fe608060405234801561001057600080fd5b506004361061004c5760003560e01c806320346a72146100515780632fd508c91461006f5780638035f0ce1461008d578063a4ece52c14610097575b600080fd5b6100596100a1565b6040516100669190610427565b60405180910390f35b61007761017a565b6040516100849190610462565b60405180910390f35b610095610186565b005b61009f610246565b005b60606000805480602002602001604051908101604052809291908181526020016000905b828210156101715783829060005260206000200180546100e4906104ac565b80601f0160208091040260200160405190810160405280929190818152602001828054610110906104ac565b801561015d5780601f106101325761010080835404028352916020019161015d565b820191906000526020600020905b81548152906001019060200180831161014057829003601f168201915b5050505050815260200190600101906100c5565b50505050905090565b60008080549050905090565b6040518060400160405280600581526020017f6a617761640000000000000000000000000000000000000000000000000000008152506000600181600181540180825580915050039060005260206000200190816101e491906106b8565b506040518060400160405280600681526020017f206b6172696d000000000000000000000000000000000000000000000000000081525060006001816001815401808255809150500390600052602060002001908161024391906106b8565b50565b60008054806102585761025761078a565b5b6001900381819060005260206000200160006102749190610278565b9055565b508054610284906104ac565b6000825580601f1061029657506102b5565b601f0160209004906000526020600020908101906102b491906102b8565b5b50565b5b808211156102d15760008160009055506001016102b9565b5090565b600081519050919050565b600082825260208201905092915050565b6000819050602082019050919050565b600081519050919050565b600082825260208201905092915050565b60005b8381101561033b578082015181840152602081019050610320565b60008484015250505050565b6000601f19601f8301169050919050565b600061036382610301565b61036d818561030c565b935061037d81856020860161031d565b61038681610347565b840191505092915050565b600061039d8383610358565b905092915050565b6000602082019050919050565b60006103bd826102d5565b6103c781856102e0565b9350836020820285016103d9856102f1565b8060005b8581101561041557848403895281516103f68582610391565b9450610401836103a5565b925060208a019950506001810190506103dd565b50829750879550505050505092915050565b6000602082019050818103600083015261044181846103b2565b905092915050565b6000819050919050565b61045c81610449565b82525050565b60006020820190506104776000830184610453565b92915050565b7f4e487b7100000000000000000000000000000000000000000000000000000000600052602260045260246000fd5b600060028204905060018216806104c457607f821691505b6020821081036104d7576104d661047d565b5b50919050565b7f4e487b7100000000000000000000000000000000000000000000000000000000600052604160045260246000fd5b60008190508160005260206000209050919050565b60006020601f8301049050919050565b600082821b905092915050565b60006008830261056e7fffffffffffffffffffffffffffffffffffffffffffffffffffffffffffffffff82610531565b6105788683610531565b95508019841693508086168417925050509392505050565b6000819050919050565b60006105b56105b06105ab84610449565b610590565b610449565b9050919050565b6000819050919050565b6105cf8361059a565b6105e36105db826105bc565b84845461053e565b825550505050565b600090565b6105f86105eb565b6106038184846105c6565b505050565b5b818110156106275761061c6000826105f0565b600181019050610609565b5050565b601f82111561066c5761063d8161050c565b61064684610521565b81016020851015610655578190505b61066961066185610521565b830182610608565b50505b505050565b600082821c905092915050565b600061068f60001984600802610671565b1980831691505092915050565b60006106a8838361067e565b9150826002028217905092915050565b6106c182610301565b67ffffffffffffffff8111156106da576106d96104dd565b5b6106e482546104ac565b6106ef82828561062b565b600060209050601f8311600181146107225760008415610710578287015190505b61071a858261069c565b865550610782565b601f1984166107308661050c565b60005b8281101561075857848901518255600182019150602085019450602081019050610733565b868310156107755784890151610771601f89168261067e565b8355505b6001600288020188555050505b505050505050565b7f4e487b7100000000000000000000000000000000000000000000000000000000600052603160045260246000fdfea26469706673582212206fadb55cb70edbf23d77f6116208e7a43748cab791fc8e05d4321d7c3a3cf8df64736f6c63430008120033",
					"opcodes": "PUSH1 0x80 PUSH1 0x40 MSTORE CALLVALUE DUP1 ISZERO PUSH2 0x10 JUMPI PUSH1 0x0 DUP1 REVERT JUMPDEST POP PUSH2 0x7EF DUP1 PUSH2 0x20 PUSH1 0x0 CODECOPY PUSH1 0x0 RETURN INVALID PUSH1 0x80 PUSH1 0x40 MSTORE CALLVALUE DUP1 ISZERO PUSH2 0x10 JUMPI PUSH1 0x0 DUP1 REVERT JUMPDEST POP PUSH1 0x4 CALLDATASIZE LT PUSH2 0x4C JUMPI PUSH1 0x0 CALLDATALOAD PUSH1 0xE0 SHR DUP1 PUSH4 0x20346A72 EQ PUSH2 0x51 JUMPI DUP1 PUSH4 0x2FD508C9 EQ PUSH2 0x6F JUMPI DUP1 PUSH4 0x8035F0CE EQ PUSH2 0x8D JUMPI DUP1 PUSH4 0xA4ECE52C EQ PUSH2 0x97 JUMPI JUMPDEST PUSH1 0x0 DUP1 REVERT JUMPDEST PUSH2 0x59 PUSH2 0xA1 JUMP JUMPDEST PUSH1 0x40 MLOAD PUSH2 0x66 SWAP2 SWAP1 PUSH2 0x427 JUMP JUMPDEST PUSH1 0x40 MLOAD DUP1 SWAP2 SUB SWAP1 RETURN JUMPDEST PUSH2 0x77 PUSH2 0x17A JUMP JUMPDEST PUSH1 0x40 MLOAD PUSH2 0x84 SWAP2 SWAP1 PUSH2 0x462 JUMP JUMPDEST PUSH1 0x40 MLOAD DUP1 SWAP2 SUB SWAP1 RETURN JUMPDEST PUSH2 0x95 PUSH2 0x186 JUMP JUMPDEST STOP JUMPDEST PUSH2 0x9F PUSH2 0x246 JUMP JUMPDEST STOP JUMPDEST PUSH1 0x60 PUSH1 0x0 DUP1 SLOAD DUP1 PUSH1 0x20 MUL PUSH1 0x20 ADD PUSH1 0x40 MLOAD SWAP1 DUP2 ADD PUSH1 0x40 MSTORE DUP1 SWAP3 SWAP2 SWAP1 DUP2 DUP2 MSTORE PUSH1 0x20 ADD PUSH1 0x0 SWAP1 JUMPDEST DUP3 DUP3 LT ISZERO PUSH2 0x171 JUMPI DUP4 DUP3 SWAP1 PUSH1 0x0 MSTORE PUSH1 0x20 PUSH1 0x0 KECCAK256 ADD DUP1 SLOAD PUSH2 0xE4 SWAP1 PUSH2 0x4AC JUMP JUMPDEST DUP1 PUSH1 0x1F ADD PUSH1 0x20 DUP1 SWAP2 DIV MUL PUSH1 0x20 ADD PUSH1 0x40 MLOAD SWAP1 DUP2 ADD PUSH1 0x40 MSTORE DUP1 SWAP3 SWAP2 SWAP1 DUP2 DUP2 MSTORE PUSH1 0x20 ADD DUP3 DUP1 SLOAD PUSH2 0x110 SWAP1 PUSH2 0x4AC JUMP JUMPDEST DUP1 ISZERO PUSH2 0x15D JUMPI DUP1 PUSH1 0x1F LT PUSH2 0x132 JUMPI PUSH2 0x100 DUP1 DUP4 SLOAD DIV MUL DUP4 MSTORE SWAP2 PUSH1 0x20 ADD SWAP2 PUSH2 0x15D JUMP JUMPDEST DUP3 ADD SWAP2 SWAP1 PUSH1 0x0 MSTORE PUSH1 0x20 PUSH1 0x0 KECCAK256 SWAP1 JUMPDEST DUP2 SLOAD DUP2 MSTORE SWAP1 PUSH1 0x1 ADD SWAP1 PUSH1 0x20 ADD DUP1 DUP4 GT PUSH2 0x140 JUMPI DUP3 SWAP1 SUB PUSH1 0x1F AND DUP3 ADD SWAP2 JUMPDEST POP POP POP POP POP DUP2 MSTORE PUSH1 0x20 ADD SWAP1 PUSH1 0x1 ADD SWAP1 PUSH2 0xC5 JUMP JUMPDEST POP POP POP POP SWAP1 POP SWAP1 JUMP JUMPDEST PUSH1 0x0 DUP1 DUP1 SLOAD SWAP1 POP SWAP1 POP SWAP1 JUMP JUMPDEST PUSH1 0x40 MLOAD DUP1 PUSH1 0x40 ADD PUSH1 0x40 MSTORE DUP1 PUSH1 0x5 DUP2 MSTORE PUSH1 0x20 ADD PUSH32 0x6A61776164000000000000000000000000000000000000000000000000000000 DUP2 MSTORE POP PUSH1 0x0 PUSH1 0x1 DUP2 PUSH1 0x1 DUP2 SLOAD ADD DUP1 DUP3 SSTORE DUP1 SWAP2 POP POP SUB SWAP1 PUSH1 0x0 MSTORE PUSH1 0x20 PUSH1 0x0 KECCAK256 ADD SWAP1 DUP2 PUSH2 0x1E4 SWAP2 SWAP1 PUSH2 0x6B8 JUMP JUMPDEST POP PUSH1 0x40 MLOAD DUP1 PUSH1 0x40 ADD PUSH1 0x40 MSTORE DUP1 PUSH1 0x6 DUP2 MSTORE PUSH1 0x20 ADD PUSH32 0x206B6172696D0000000000000000000000000000000000000000000000000000 DUP2 MSTORE POP PUSH1 0x0 PUSH1 0x1 DUP2 PUSH1 0x1 DUP2 SLOAD ADD DUP1 DUP3 SSTORE DUP1 SWAP2 POP POP SUB SWAP1 PUSH1 0x0 MSTORE PUSH1 0x20 PUSH1 0x0 KECCAK256 ADD SWAP1 DUP2 PUSH2 0x243 SWAP2 SWAP1 PUSH2 0x6B8 JUMP JUMPDEST POP JUMP JUMPDEST PUSH1 0x0 DUP1 SLOAD DUP1 PUSH2 0x258 JUMPI PUSH2 0x257 PUSH2 0x78A JUMP JUMPDEST JUMPDEST PUSH1 0x1 SWAP1 SUB DUP2 DUP2 SWAP1 PUSH1 0x0 MSTORE PUSH1 0x20 PUSH1 0x0 KECCAK256 ADD PUSH1 0x0 PUSH2 0x274 SWAP2 SWAP1 PUSH2 0x278 JUMP JUMPDEST SWAP1 SSTORE JUMP JUMPDEST POP DUP1 SLOAD PUSH2 0x284 SWAP1 PUSH2 0x4AC JUMP JUMPDEST PUSH1 0x0 DUP3 SSTORE DUP1 PUSH1 0x1F LT PUSH2 0x296 JUMPI POP PUSH2 0x2B5 JUMP JUMPDEST PUSH1 0x1F ADD PUSH1 0x20 SWAP1 DIV SWAP1 PUSH1 0x0 MSTORE PUSH1 0x20 PUSH1 0x0 KECCAK256 SWAP1 DUP2 ADD SWAP1 PUSH2 0x2B4 SWAP2 SWAP1 PUSH2 0x2B8 JUMP JUMPDEST JUMPDEST POP JUMP JUMPDEST JUMPDEST DUP1 DUP3 GT ISZERO PUSH2 0x2D1 JUMPI PUSH1 0x0 DUP2 PUSH1 0x0 SWAP1 SSTORE POP PUSH1 0x1 ADD PUSH2 0x2B9 JUMP JUMPDEST POP SWAP1 JUMP JUMPDEST PUSH1 0x0 DUP2 MLOAD SWAP1 POP SWAP2 SWAP1 POP JUMP JUMPDEST PUSH1 0x0 DUP3 DUP3 MSTORE PUSH1 0x20 DUP3 ADD SWAP1 POP SWAP3 SWAP2 POP POP JUMP JUMPDEST PUSH1 0x0 DUP2 SWAP1 POP PUSH1 0x20 DUP3 ADD SWAP1 POP SWAP2 SWAP1 POP JUMP JUMPDEST PUSH1 0x0 DUP2 MLOAD SWAP1 POP SWAP2 SWAP1 POP JUMP JUMPDEST PUSH1 0x0 DUP3 DUP3 MSTORE PUSH1 0x20 DUP3 ADD SWAP1 POP SWAP3 SWAP2 POP POP JUMP JUMPDEST PUSH1 0x0 JUMPDEST DUP4 DUP2 LT ISZERO PUSH2 0x33B JUMPI DUP1 DUP3 ADD MLOAD DUP2 DUP5 ADD MSTORE PUSH1 0x20 DUP2 ADD SWAP1 POP PUSH2 0x320 JUMP JUMPDEST PUSH1 0x0 DUP5 DUP5 ADD MSTORE POP POP POP POP JUMP JUMPDEST PUSH1 0x0 PUSH1 0x1F NOT PUSH1 0x1F DUP4 ADD AND SWAP1 POP SWAP2 SWAP1 POP JUMP JUMPDEST PUSH1 0x0 PUSH2 0x363 DUP3 PUSH2 0x301 JUMP JUMPDEST PUSH2 0x36D DUP2 DUP6 PUSH2 0x30C JUMP JUMPDEST SWAP4 POP PUSH2 0x37D DUP2 DUP6 PUSH1 0x20 DUP7 ADD PUSH2 0x31D JUMP JUMPDEST PUSH2 0x386 DUP2 PUSH2 0x347 JUMP JUMPDEST DUP5 ADD SWAP2 POP POP SWAP3 SWAP2 POP POP JUMP JUMPDEST PUSH1 0x0 PUSH2 0x39D DUP4 DUP4 PUSH2 0x358 JUMP JUMPDEST SWAP1 POP SWAP3 SWAP2 POP POP JUMP JUMPDEST PUSH1 0x0 PUSH1 0x20 DUP3 ADD SWAP1 POP SWAP2 SWAP1 POP JUMP JUMPDEST PUSH1 0x0 PUSH2 0x3BD DUP3 PUSH2 0x2D5 JUMP JUMPDEST PUSH2 0x3C7 DUP2 DUP6 PUSH2 0x2E0 JUMP JUMPDEST SWAP4 POP DUP4 PUSH1 0x20 DUP3 MUL DUP6 ADD PUSH2 0x3D9 DUP6 PUSH2 0x2F1 JUMP JUMPDEST DUP1 PUSH1 0x0 JUMPDEST DUP6 DUP2 LT ISZERO PUSH2 0x415 JUMPI DUP5 DUP5 SUB DUP10 MSTORE DUP2 MLOAD PUSH2 0x3F6 DUP6 DUP3 PUSH2 0x391 JUMP JUMPDEST SWAP5 POP PUSH2 0x401 DUP4 PUSH2 0x3A5 JUMP JUMPDEST SWAP3 POP PUSH1 0x20 DUP11 ADD SWAP10 POP POP PUSH1 0x1 DUP2 ADD SWAP1 POP PUSH2 0x3DD JUMP JUMPDEST POP DUP3 SWAP8 POP DUP8 SWAP6 POP POP POP POP POP POP SWAP3 SWAP2 POP POP JUMP JUMPDEST PUSH1 0x0 PUSH1 0x20 DUP3 ADD SWAP1 POP DUP2 DUP2 SUB PUSH1 0x0 DUP4 ADD MSTORE PUSH2 0x441 DUP2 DUP5 PUSH2 0x3B2 JUMP JUMPDEST SWAP1 POP SWAP3 SWAP2 POP POP JUMP JUMPDEST PUSH1 0x0 DUP2 SWAP1 POP SWAP2 SWAP1 POP JUMP JUMPDEST PUSH2 0x45C DUP2 PUSH2 0x449 JUMP JUMPDEST DUP3 MSTORE POP POP JUMP JUMPDEST PUSH1 0x0 PUSH1 0x20 DUP3 ADD SWAP1 POP PUSH2 0x477 PUSH1 0x0 DUP4 ADD DUP5 PUSH2 0x453 JUMP JUMPDEST SWAP3 SWAP2 POP POP JUMP JUMPDEST PUSH32 0x4E487B7100000000000000000000000000000000000000000000000000000000 PUSH1 0x0 MSTORE PUSH1 0x22 PUSH1 0x4 MSTORE PUSH1 0x24 PUSH1 0x0 REVERT JUMPDEST PUSH1 0x0 PUSH1 0x2 DUP3 DIV SWAP1 POP PUSH1 0x1 DUP3 AND DUP1 PUSH2 0x4C4 JUMPI PUSH1 0x7F DUP3 AND SWAP2 POP JUMPDEST PUSH1 0x20 DUP3 LT DUP2 SUB PUSH2 0x4D7 JUMPI PUSH2 0x4D6 PUSH2 0x47D JUMP JUMPDEST JUMPDEST POP SWAP2 SWAP1 POP JUMP JUMPDEST PUSH32 0x4E487B7100000000000000000000000000000000000000000000000000000000 PUSH1 0x0 MSTORE PUSH1 0x41 PUSH1 0x4 MSTORE PUSH1 0x24 PUSH1 0x0 REVERT JUMPDEST PUSH1 0x0 DUP2 SWAP1 POP DUP2 PUSH1 0x0 MSTORE PUSH1 0x20 PUSH1 0x0 KECCAK256 SWAP1 POP SWAP2 SWAP1 POP JUMP JUMPDEST PUSH1 0x0 PUSH1 0x20 PUSH1 0x1F DUP4 ADD DIV SWAP1 POP SWAP2 SWAP1 POP JUMP JUMPDEST PUSH1 0x0 DUP3 DUP3 SHL SWAP1 POP SWAP3 SWAP2 POP POP JUMP JUMPDEST PUSH1 0x0 PUSH1 0x8 DUP4 MUL PUSH2 0x56E PUSH32 0xFFFFFFFFFFFFFFFFFFFFFFFFFFFFFFFFFFFFFFFFFFFFFFFFFFFFFFFFFFFFFFFF DUP3 PUSH2 0x531 JUMP JUMPDEST PUSH2 0x578 DUP7 DUP4 PUSH2 0x531 JUMP JUMPDEST SWAP6 POP DUP1 NOT DUP5 AND SWAP4 POP DUP1 DUP7 AND DUP5 OR SWAP3 POP POP POP SWAP4 SWAP3 POP POP POP JUMP JUMPDEST PUSH1 0x0 DUP2 SWAP1 POP SWAP2 SWAP1 POP JUMP JUMPDEST PUSH1 0x0 PUSH2 0x5B5 PUSH2 0x5B0 PUSH2 0x5AB DUP5 PUSH2 0x449 JUMP JUMPDEST PUSH2 0x590 JUMP JUMPDEST PUSH2 0x449 JUMP JUMPDEST SWAP1 POP SWAP2 SWAP1 POP JUMP JUMPDEST PUSH1 0x0 DUP2 SWAP1 POP SWAP2 SWAP1 POP JUMP JUMPDEST PUSH2 0x5CF DUP4 PUSH2 0x59A JUMP JUMPDEST PUSH2 0x5E3 PUSH2 0x5DB DUP3 PUSH2 0x5BC JUMP JUMPDEST DUP5 DUP5 SLOAD PUSH2 0x53E JUMP JUMPDEST DUP3 SSTORE POP POP POP POP JUMP JUMPDEST PUSH1 0x0 SWAP1 JUMP JUMPDEST PUSH2 0x5F8 PUSH2 0x5EB JUMP JUMPDEST PUSH2 0x603 DUP2 DUP5 DUP5 PUSH2 0x5C6 JUMP JUMPDEST POP POP POP JUMP JUMPDEST JUMPDEST DUP2 DUP2 LT ISZERO PUSH2 0x627 JUMPI PUSH2 0x61C PUSH1 0x0 DUP3 PUSH2 0x5F0 JUMP JUMPDEST PUSH1 0x1 DUP2 ADD SWAP1 POP PUSH2 0x609 JUMP JUMPDEST POP POP JUMP JUMPDEST PUSH1 0x1F DUP3 GT ISZERO PUSH2 0x66C JUMPI PUSH2 0x63D DUP2 PUSH2 0x50C JUMP JUMPDEST PUSH2 0x646 DUP5 PUSH2 0x521 JUMP JUMPDEST DUP2 ADD PUSH1 0x20 DUP6 LT ISZERO PUSH2 0x655 JUMPI DUP2 SWAP1 POP JUMPDEST PUSH2 0x669 PUSH2 0x661 DUP6 PUSH2 0x521 JUMP JUMPDEST DUP4 ADD DUP3 PUSH2 0x608 JUMP JUMPDEST POP POP JUMPDEST POP POP POP JUMP JUMPDEST PUSH1 0x0 DUP3 DUP3 SHR SWAP1 POP SWAP3 SWAP2 POP POP JUMP JUMPDEST PUSH1 0x0 PUSH2 0x68F PUSH1 0x0 NOT DUP5 PUSH1 0x8 MUL PUSH2 0x671 JUMP JUMPDEST NOT DUP1 DUP4 AND SWAP2 POP POP SWAP3 SWAP2 POP POP JUMP JUMPDEST PUSH1 0x0 PUSH2 0x6A8 DUP4 DUP4 PUSH2 0x67E JUMP JUMPDEST SWAP2 POP DUP3 PUSH1 0x2 MUL DUP3 OR SWAP1 POP SWAP3 SWAP2 POP POP JUMP JUMPDEST PUSH2 0x6C1 DUP3 PUSH2 0x301 JUMP JUMPDEST PUSH8 0xFFFFFFFFFFFFFFFF DUP2 GT ISZERO PUSH2 0x6DA JUMPI PUSH2 0x6D9 PUSH2 0x4DD JUMP JUMPDEST JUMPDEST PUSH2 0x6E4 DUP3 SLOAD PUSH2 0x4AC JUMP JUMPDEST PUSH2 0x6EF DUP3 DUP3 DUP6 PUSH2 0x62B JUMP JUMPDEST PUSH1 0x0 PUSH1 0x20 SWAP1 POP PUSH1 0x1F DUP4 GT PUSH1 0x1 DUP2 EQ PUSH2 0x722 JUMPI PUSH1 0x0 DUP5 ISZERO PUSH2 0x710 JUMPI DUP3 DUP8 ADD MLOAD SWAP1 POP JUMPDEST PUSH2 0x71A DUP6 DUP3 PUSH2 0x69C JUMP JUMPDEST DUP7 SSTORE POP PUSH2 0x782 JUMP JUMPDEST PUSH1 0x1F NOT DUP5 AND PUSH2 0x730 DUP7 PUSH2 0x50C JUMP JUMPDEST PUSH1 0x0 JUMPDEST DUP3 DUP2 LT ISZERO PUSH2 0x758 JUMPI DUP5 DUP10 ADD MLOAD DUP3 SSTORE PUSH1 0x1 DUP3 ADD SWAP2 POP PUSH1 0x20 DUP6 ADD SWAP5 POP PUSH1 0x20 DUP2 ADD SWAP1 POP PUSH2 0x733 JUMP JUMPDEST DUP7 DUP4 LT ISZERO PUSH2 0x775 JUMPI DUP5 DUP10 ADD MLOAD PUSH2 0x771 PUSH1 0x1F DUP10 AND DUP3 PUSH2 0x67E JUMP JUMPDEST DUP4 SSTORE POP JUMPDEST PUSH1 0x1 PUSH1 0x2 DUP9 MUL ADD DUP9 SSTORE POP POP POP JUMPDEST POP POP POP POP POP POP JUMP JUMPDEST PUSH32 0x4E487B7100000000000000000000000000000000000000000000000000000000 PUSH1 0x0 MSTORE PUSH1 0x31 PUSH1 0x4 MSTORE PUSH1 0x24 PUSH1 0x0 REVERT INVALID LOG2 PUSH5 0x6970667358 0x22 SLT KECCAK256 PUSH16 0xADB55CB70EDBF23D77F6116208E7A437 BASEFEE 0xCA 0xB7 SWAP2 0xFC DUP15 SDIV 0xD4 ORIGIN SAR PUSH29 0x3A3CF8DF64736F6C634300081200330000000000000000000000000000 "
				},
				"gasEstimates": {
					"creation": {
						"codeDepositCost": "406200",
						"executionCost": "443",
						"totalCost": "406643"
					},
					"external": {
						"array2()": "infinite",
						"lengthOfArray()": "2445",
						"pop()": "infinite",
						"push()": "infinite"
					}
				},
				"methodIdentifiers": {
					"array2()": "20346a72",
					"lengthOfArray()": "2fd508c9",
					"pop()": "a4ece52c",
					"push()": "8035f0ce"
				}
			},
			"storageLayout": {
				"storage": [
					{
						"astId": 4,
						"contract": "exercise7.sol:dynamicArray",
						"label": "arr2",
						"offset": 0,
						"slot": "0",
						"type": "t_array(t_string_storage)dyn_storage"
					}
				],
				"types": {
					"t_array(t_string_storage)dyn_storage": {
						"base": "t_string_storage",
						"encoding": "dynamic_array",
						"label": "string[]",
						"numberOfBytes": "32"
					},
					"t_string_storage": {
						"encoding": "bytes",
						"label": "string",
						"numberOfBytes": "32"
					}
				}
			},
			"userdoc": {
				"kind": "user",
				"methods": {},
				"version": 1
			}
		}
	}
}