{
	"exercise8.sol": {
		"Array": {
			"abi": [
				{
					"inputs": [
						{
							"internalType": "uint256",
							"name": "",
							"type": "uint256"
						}
					],
					"name": "array",
					"outputs": [
						{
							"internalType": "int256",
							"name": "",
							"type": "int256"
						}
					],
					"stateMutability": "view",
					"type": "function"
				},
				{
					"inputs": [],
					"name": "get",
					"outputs": [
						{
							"internalType": "int256[]",
							"name": "",
							"type": "int256[]"
						}
					],
					"stateMutability": "view",
					"type": "function"
				},
				{
					"inputs": [],
					"name": "getlength",
					"outputs": [
						{
							"internalType": "uint256",
							"name": "",
							"type": "uint256"
						}
					],
					"stateMutability": "view",
					"type": "function"
				},
				{
					"inputs": [],
					"name": "ipush",
					"outputs": [],
					"stateMutability": "nonpayable",
					"type": "function"
				}
			],
			"devdoc": {
				"kind": "dev",
				"methods": {},
				"version": 1
			},
			"evm": {
				"assembly": "    /* \"exercise8.sol\":58:319  contract Array{... */\n  mstore(0x40, 0x80)\n  callvalue\n  dup1\n  iszero\n  tag_1\n  jumpi\n  0x00\n  dup1\n  revert\ntag_1:\n  pop\n  dataSize(sub_0)\n  dup1\n  dataOffset(sub_0)\n  0x00\n  codecopy\n  0x00\n  return\nstop\n\nsub_0: assembly {\n        /* \"exercise8.sol\":58:319  contract Array{... */\n      mstore(0x40, 0x80)\n      callvalue\n      dup1\n      iszero\n      tag_1\n      jumpi\n      0x00\n      dup1\n      revert\n    tag_1:\n      pop\n      jumpi(tag_2, lt(calldatasize, 0x04))\n      shr(0xe0, calldataload(0x00))\n      dup1\n      0x38d94193\n      eq\n      tag_3\n      jumpi\n      dup1\n      0x6d4ce63c\n      eq\n      tag_4\n      jumpi\n      dup1\n      0xa16d3598\n      eq\n      tag_5\n      jumpi\n      dup1\n      0xc3344af8\n      eq\n      tag_6\n      jumpi\n    tag_2:\n      0x00\n      dup1\n      revert\n        /* \"exercise8.sol\":75:93  int[] public array */\n    tag_3:\n      tag_7\n      0x04\n      dup1\n      calldatasize\n      sub\n      dup2\n      add\n      swap1\n      tag_8\n      swap2\n      swap1\n      tag_9\n      jump\t// in\n    tag_8:\n      tag_10\n      jump\t// in\n    tag_7:\n      mload(0x40)\n      tag_11\n      swap2\n      swap1\n      tag_12\n      jump\t// in\n    tag_11:\n      mload(0x40)\n      dup1\n      swap2\n      sub\n      swap1\n      return\n        /* \"exercise8.sol\":175:242  function get() public view returns(int[] memory){... */\n    tag_4:\n      tag_13\n      tag_14\n      jump\t// in\n    tag_13:\n      mload(0x40)\n      tag_15\n      swap2\n      swap1\n      tag_16\n      jump\t// in\n    tag_15:\n      mload(0x40)\n      dup1\n      swap2\n      sub\n      swap1\n      return\n        /* \"exercise8.sol\":244:316  function getlength() public view returns(uint){... */\n    tag_5:\n      tag_17\n      tag_18\n      jump\t// in\n    tag_17:\n      mload(0x40)\n      tag_19\n      swap2\n      swap1\n      tag_20\n      jump\t// in\n    tag_19:\n      mload(0x40)\n      dup1\n      swap2\n      sub\n      swap1\n      return\n        /* \"exercise8.sol\":96:173  function ipush() public{... */\n    tag_6:\n      tag_21\n      tag_22\n      jump\t// in\n    tag_21:\n      stop\n        /* \"exercise8.sol\":75:93  int[] public array */\n    tag_10:\n      0x00\n      dup2\n      dup2\n      sload\n      dup2\n      lt\n      tag_23\n      jumpi\n      0x00\n      dup1\n      revert\n    tag_23:\n      swap1\n      0x00\n      mstore\n      keccak256(0x00, 0x20)\n      add\n      0x00\n      swap2\n      pop\n      swap1\n      pop\n      sload\n      dup2\n      jump\t// out\n        /* \"exercise8.sol\":175:242  function get() public view returns(int[] memory){... */\n    tag_14:\n        /* \"exercise8.sol\":210:222  int[] memory */\n      0x60\n        /* \"exercise8.sol\":233:238  array */\n      0x00\n        /* \"exercise8.sol\":226:238  return array */\n      dup1\n      sload\n      dup1\n      0x20\n      mul\n      0x20\n      add\n      mload(0x40)\n      swap1\n      dup2\n      add\n      0x40\n      mstore\n      dup1\n      swap3\n      swap2\n      swap1\n      dup2\n      dup2\n      mstore\n      0x20\n      add\n      dup3\n      dup1\n      sload\n      dup1\n      iszero\n      tag_26\n      jumpi\n      0x20\n      mul\n      dup3\n      add\n      swap2\n      swap1\n      0x00\n      mstore\n      keccak256(0x00, 0x20)\n      swap1\n    tag_27:\n      dup2\n      sload\n      dup2\n      mstore\n      0x20\n      add\n      swap1\n      0x01\n      add\n      swap1\n      dup1\n      dup4\n      gt\n      tag_27\n      jumpi\n    tag_26:\n      pop\n      pop\n      pop\n      pop\n      pop\n      swap1\n      pop\n        /* \"exercise8.sol\":175:242  function get() public view returns(int[] memory){... */\n      swap1\n      jump\t// out\n        /* \"exercise8.sol\":244:316  function getlength() public view returns(uint){... */\n    tag_18:\n        /* \"exercise8.sol\":285:289  uint */\n      0x00\n        /* \"exercise8.sol\":300:305  array */\n      dup1\n        /* \"exercise8.sol\":300:312  array.length */\n      dup1\n      sload\n      swap1\n      pop\n        /* \"exercise8.sol\":293:312  return array.length */\n      swap1\n      pop\n        /* \"exercise8.sol\":244:316  function getlength() public view returns(uint){... */\n      swap1\n      jump\t// out\n        /* \"exercise8.sol\":96:173  function ipush() public{... */\n    tag_22:\n        /* \"exercise8.sol\":122:127  array */\n      0x00\n        /* \"exercise8.sol\":133:135  -5 */\n      0xfffffffffffffffffffffffffffffffffffffffffffffffffffffffffffffffb\n        /* \"exercise8.sol\":122:136  array.push(-5) */\n      swap1\n      dup1\n      0x01\n      dup2\n      sload\n      add\n      dup1\n      dup3\n      sstore\n      dup1\n      swap2\n      pop\n      pop\n      0x01\n      swap1\n      sub\n      swap1\n      0x00\n      mstore\n      keccak256(0x00, 0x20)\n      add\n      0x00\n      swap1\n      swap2\n      swap1\n      swap2\n      swap1\n      swap2\n      pop\n      sstore\n        /* \"exercise8.sol\":139:144  array */\n      0x00\n        /* \"exercise8.sol\":150:151  0 */\n      dup1\n        /* \"exercise8.sol\":139:152  array.push(0) */\n      dup1\n      0x01\n      dup2\n      sload\n      add\n      dup1\n      dup3\n      sstore\n      dup1\n      swap2\n      pop\n      pop\n      0x01\n      swap1\n      sub\n      swap1\n      0x00\n      mstore\n      keccak256(0x00, 0x20)\n      add\n      0x00\n      swap1\n      swap2\n      swap1\n      swap2\n      swap1\n      swap2\n      pop\n      sstore\n        /* \"exercise8.sol\":155:160  array */\n      0x00\n        /* \"exercise8.sol\":166:168  10 */\n      0x0a\n        /* \"exercise8.sol\":155:169  array.push(10) */\n      swap1\n      dup1\n      0x01\n      dup2\n      sload\n      add\n      dup1\n      dup3\n      sstore\n      dup1\n      swap2\n      pop\n      pop\n      0x01\n      swap1\n      sub\n      swap1\n      0x00\n      mstore\n      keccak256(0x00, 0x20)\n      add\n      0x00\n      swap1\n      swap2\n      swap1\n      swap2\n      swap1\n      swap2\n      pop\n      sstore\n        /* \"exercise8.sol\":96:173  function ipush() public{... */\n      jump\t// out\n        /* \"#utility.yul\":88:205   */\n    tag_34:\n        /* \"#utility.yul\":197:198   */\n      0x00\n        /* \"#utility.yul\":194:195   */\n      dup1\n        /* \"#utility.yul\":187:199   */\n      revert\n        /* \"#utility.yul\":334:411   */\n    tag_36:\n        /* \"#utility.yul\":371:378   */\n      0x00\n        /* \"#utility.yul\":400:405   */\n      dup2\n        /* \"#utility.yul\":389:405   */\n      swap1\n      pop\n        /* \"#utility.yul\":334:411   */\n      swap2\n      swap1\n      pop\n      jump\t// out\n        /* \"#utility.yul\":417:539   */\n    tag_37:\n        /* \"#utility.yul\":490:514   */\n      tag_55\n        /* \"#utility.yul\":508:513   */\n      dup2\n        /* \"#utility.yul\":490:514   */\n      tag_36\n      jump\t// in\n    tag_55:\n        /* \"#utility.yul\":483:488   */\n      dup2\n        /* \"#utility.yul\":480:515   */\n      eq\n        /* \"#utility.yul\":470:533   */\n      tag_56\n      jumpi\n        /* \"#utility.yul\":529:530   */\n      0x00\n        /* \"#utility.yul\":526:527   */\n      dup1\n        /* \"#utility.yul\":519:531   */\n      revert\n        /* \"#utility.yul\":470:533   */\n    tag_56:\n        /* \"#utility.yul\":417:539   */\n      pop\n      jump\t// out\n        /* \"#utility.yul\":545:684   */\n    tag_38:\n        /* \"#utility.yul\":591:596   */\n      0x00\n        /* \"#utility.yul\":629:635   */\n      dup2\n        /* \"#utility.yul\":616:636   */\n      calldataload\n        /* \"#utility.yul\":607:636   */\n      swap1\n      pop\n        /* \"#utility.yul\":645:678   */\n      tag_58\n        /* \"#utility.yul\":672:677   */\n      dup2\n        /* \"#utility.yul\":645:678   */\n      tag_37\n      jump\t// in\n    tag_58:\n        /* \"#utility.yul\":545:684   */\n      swap3\n      swap2\n      pop\n      pop\n      jump\t// out\n        /* \"#utility.yul\":690:1019   */\n    tag_9:\n        /* \"#utility.yul\":749:755   */\n      0x00\n        /* \"#utility.yul\":798:800   */\n      0x20\n        /* \"#utility.yul\":786:795   */\n      dup3\n        /* \"#utility.yul\":777:784   */\n      dup5\n        /* \"#utility.yul\":773:796   */\n      sub\n        /* \"#utility.yul\":769:801   */\n      slt\n        /* \"#utility.yul\":766:885   */\n      iszero\n      tag_60\n      jumpi\n        /* \"#utility.yul\":804:883   */\n      tag_61\n      tag_34\n      jump\t// in\n    tag_61:\n        /* \"#utility.yul\":766:885   */\n    tag_60:\n        /* \"#utility.yul\":924:925   */\n      0x00\n        /* \"#utility.yul\":949:1002   */\n      tag_62\n        /* \"#utility.yul\":994:1001   */\n      dup5\n        /* \"#utility.yul\":985:991   */\n      dup3\n        /* \"#utility.yul\":974:983   */\n      dup6\n        /* \"#utility.yul\":970:992   */\n      add\n        /* \"#utility.yul\":949:1002   */\n      tag_38\n      jump\t// in\n    tag_62:\n        /* \"#utility.yul\":939:1002   */\n      swap2\n      pop\n        /* \"#utility.yul\":895:1012   */\n      pop\n        /* \"#utility.yul\":690:1019   */\n      swap3\n      swap2\n      pop\n      pop\n      jump\t// out\n        /* \"#utility.yul\":1025:1101   */\n    tag_39:\n        /* \"#utility.yul\":1061:1068   */\n      0x00\n        /* \"#utility.yul\":1090:1095   */\n      dup2\n        /* \"#utility.yul\":1079:1095   */\n      swap1\n      pop\n        /* \"#utility.yul\":1025:1101   */\n      swap2\n      swap1\n      pop\n      jump\t// out\n        /* \"#utility.yul\":1107:1222   */\n    tag_40:\n        /* \"#utility.yul\":1192:1215   */\n      tag_65\n        /* \"#utility.yul\":1209:1214   */\n      dup2\n        /* \"#utility.yul\":1192:1215   */\n      tag_39\n      jump\t// in\n    tag_65:\n        /* \"#utility.yul\":1187:1190   */\n      dup3\n        /* \"#utility.yul\":1180:1216   */\n      mstore\n        /* \"#utility.yul\":1107:1222   */\n      pop\n      pop\n      jump\t// out\n        /* \"#utility.yul\":1228:1446   */\n    tag_12:\n        /* \"#utility.yul\":1319:1323   */\n      0x00\n        /* \"#utility.yul\":1357:1359   */\n      0x20\n        /* \"#utility.yul\":1346:1355   */\n      dup3\n        /* \"#utility.yul\":1342:1360   */\n      add\n        /* \"#utility.yul\":1334:1360   */\n      swap1\n      pop\n        /* \"#utility.yul\":1370:1439   */\n      tag_67\n        /* \"#utility.yul\":1436:1437   */\n      0x00\n        /* \"#utility.yul\":1425:1434   */\n      dup4\n        /* \"#utility.yul\":1421:1438   */\n      add\n        /* \"#utility.yul\":1412:1418   */\n      dup5\n        /* \"#utility.yul\":1370:1439   */\n      tag_40\n      jump\t// in\n    tag_67:\n        /* \"#utility.yul\":1228:1446   */\n      swap3\n      swap2\n      pop\n      pop\n      jump\t// out\n        /* \"#utility.yul\":1452:1565   */\n    tag_41:\n        /* \"#utility.yul\":1518:1524   */\n      0x00\n        /* \"#utility.yul\":1552:1557   */\n      dup2\n        /* \"#utility.yul\":1546:1558   */\n      mload\n        /* \"#utility.yul\":1536:1558   */\n      swap1\n      pop\n        /* \"#utility.yul\":1452:1565   */\n      swap2\n      swap1\n      pop\n      jump\t// out\n        /* \"#utility.yul\":1571:1754   */\n    tag_42:\n        /* \"#utility.yul\":1669:1680   */\n      0x00\n        /* \"#utility.yul\":1703:1709   */\n      dup3\n        /* \"#utility.yul\":1698:1701   */\n      dup3\n        /* \"#utility.yul\":1691:1710   */\n      mstore\n        /* \"#utility.yul\":1743:1747   */\n      0x20\n        /* \"#utility.yul\":1738:1741   */\n      dup3\n        /* \"#utility.yul\":1734:1748   */\n      add\n        /* \"#utility.yul\":1719:1748   */\n      swap1\n      pop\n        /* \"#utility.yul\":1571:1754   */\n      swap3\n      swap2\n      pop\n      pop\n      jump\t// out\n        /* \"#utility.yul\":1760:1891   */\n    tag_43:\n        /* \"#utility.yul\":1826:1830   */\n      0x00\n        /* \"#utility.yul\":1849:1852   */\n      dup2\n        /* \"#utility.yul\":1841:1852   */\n      swap1\n      pop\n        /* \"#utility.yul\":1879:1883   */\n      0x20\n        /* \"#utility.yul\":1874:1877   */\n      dup3\n        /* \"#utility.yul\":1870:1884   */\n      add\n        /* \"#utility.yul\":1862:1884   */\n      swap1\n      pop\n        /* \"#utility.yul\":1760:1891   */\n      swap2\n      swap1\n      pop\n      jump\t// out\n        /* \"#utility.yul\":1897:2002   */\n    tag_44:\n        /* \"#utility.yul\":1972:1995   */\n      tag_72\n        /* \"#utility.yul\":1989:1994   */\n      dup2\n        /* \"#utility.yul\":1972:1995   */\n      tag_39\n      jump\t// in\n    tag_72:\n        /* \"#utility.yul\":1967:1970   */\n      dup3\n        /* \"#utility.yul\":1960:1996   */\n      mstore\n        /* \"#utility.yul\":1897:2002   */\n      pop\n      pop\n      jump\t// out\n        /* \"#utility.yul\":2008:2183   */\n    tag_45:\n        /* \"#utility.yul\":2075:2085   */\n      0x00\n        /* \"#utility.yul\":2096:2140   */\n      tag_74\n        /* \"#utility.yul\":2136:2139   */\n      dup4\n        /* \"#utility.yul\":2128:2134   */\n      dup4\n        /* \"#utility.yul\":2096:2140   */\n      tag_44\n      jump\t// in\n    tag_74:\n        /* \"#utility.yul\":2172:2176   */\n      0x20\n        /* \"#utility.yul\":2167:2170   */\n      dup4\n        /* \"#utility.yul\":2163:2177   */\n      add\n        /* \"#utility.yul\":2149:2177   */\n      swap1\n      pop\n        /* \"#utility.yul\":2008:2183   */\n      swap3\n      swap2\n      pop\n      pop\n      jump\t// out\n        /* \"#utility.yul\":2189:2301   */\n    tag_46:\n        /* \"#utility.yul\":2258:2262   */\n      0x00\n        /* \"#utility.yul\":2290:2294   */\n      0x20\n        /* \"#utility.yul\":2285:2288   */\n      dup3\n        /* \"#utility.yul\":2281:2295   */\n      add\n        /* \"#utility.yul\":2273:2295   */\n      swap1\n      pop\n        /* \"#utility.yul\":2189:2301   */\n      swap2\n      swap1\n      pop\n      jump\t// out\n        /* \"#utility.yul\":2335:3059   */\n    tag_47:\n        /* \"#utility.yul\":2452:2455   */\n      0x00\n        /* \"#utility.yul\":2481:2534   */\n      tag_77\n        /* \"#utility.yul\":2528:2533   */\n      dup3\n        /* \"#utility.yul\":2481:2534   */\n      tag_41\n      jump\t// in\n    tag_77:\n        /* \"#utility.yul\":2550:2635   */\n      tag_78\n        /* \"#utility.yul\":2628:2634   */\n      dup2\n        /* \"#utility.yul\":2623:2626   */\n      dup6\n        /* \"#utility.yul\":2550:2635   */\n      tag_42\n      jump\t// in\n    tag_78:\n        /* \"#utility.yul\":2543:2635   */\n      swap4\n      pop\n        /* \"#utility.yul\":2659:2714   */\n      tag_79\n        /* \"#utility.yul\":2708:2713   */\n      dup4\n        /* \"#utility.yul\":2659:2714   */\n      tag_43\n      jump\t// in\n    tag_79:\n        /* \"#utility.yul\":2737:2744   */\n      dup1\n        /* \"#utility.yul\":2768:2769   */\n      0x00\n        /* \"#utility.yul\":2753:3034   */\n    tag_80:\n        /* \"#utility.yul\":2778:2784   */\n      dup4\n        /* \"#utility.yul\":2775:2776   */\n      dup2\n        /* \"#utility.yul\":2772:2785   */\n      lt\n        /* \"#utility.yul\":2753:3034   */\n      iszero\n      tag_82\n      jumpi\n        /* \"#utility.yul\":2854:2860   */\n      dup2\n        /* \"#utility.yul\":2848:2861   */\n      mload\n        /* \"#utility.yul\":2881:2942   */\n      tag_83\n        /* \"#utility.yul\":2938:2941   */\n      dup9\n        /* \"#utility.yul\":2923:2936   */\n      dup3\n        /* \"#utility.yul\":2881:2942   */\n      tag_45\n      jump\t// in\n    tag_83:\n        /* \"#utility.yul\":2874:2942   */\n      swap8\n      pop\n        /* \"#utility.yul\":2965:3024   */\n      tag_84\n        /* \"#utility.yul\":3017:3023   */\n      dup4\n        /* \"#utility.yul\":2965:3024   */\n      tag_46\n      jump\t// in\n    tag_84:\n        /* \"#utility.yul\":2955:3024   */\n      swap3\n      pop\n        /* \"#utility.yul\":2813:3034   */\n      pop\n        /* \"#utility.yul\":2800:2801   */\n      0x01\n        /* \"#utility.yul\":2797:2798   */\n      dup2\n        /* \"#utility.yul\":2793:2802   */\n      add\n        /* \"#utility.yul\":2788:2802   */\n      swap1\n      pop\n        /* \"#utility.yul\":2753:3034   */\n      jump(tag_80)\n    tag_82:\n        /* \"#utility.yul\":2757:2771   */\n      pop\n        /* \"#utility.yul\":3050:3053   */\n      dup6\n        /* \"#utility.yul\":3043:3053   */\n      swap4\n      pop\n        /* \"#utility.yul\":2457:3059   */\n      pop\n      pop\n      pop\n        /* \"#utility.yul\":2335:3059   */\n      swap3\n      swap2\n      pop\n      pop\n      jump\t// out\n        /* \"#utility.yul\":3065:3434   */\n    tag_16:\n        /* \"#utility.yul\":3206:3210   */\n      0x00\n        /* \"#utility.yul\":3244:3246   */\n      0x20\n        /* \"#utility.yul\":3233:3242   */\n      dup3\n        /* \"#utility.yul\":3229:3247   */\n      add\n        /* \"#utility.yul\":3221:3247   */\n      swap1\n      pop\n        /* \"#utility.yul\":3293:3302   */\n      dup2\n        /* \"#utility.yul\":3287:3291   */\n      dup2\n        /* \"#utility.yul\":3283:3303   */\n      sub\n        /* \"#utility.yul\":3279:3280   */\n      0x00\n        /* \"#utility.yul\":3268:3277   */\n      dup4\n        /* \"#utility.yul\":3264:3281   */\n      add\n        /* \"#utility.yul\":3257:3304   */\n      mstore\n        /* \"#utility.yul\":3321:3427   */\n      tag_86\n        /* \"#utility.yul\":3422:3426   */\n      dup2\n        /* \"#utility.yul\":3413:3419   */\n      dup5\n        /* \"#utility.yul\":3321:3427   */\n      tag_47\n      jump\t// in\n    tag_86:\n        /* \"#utility.yul\":3313:3427   */\n      swap1\n      pop\n        /* \"#utility.yul\":3065:3434   */\n      swap3\n      swap2\n      pop\n      pop\n      jump\t// out\n        /* \"#utility.yul\":3440:3558   */\n    tag_48:\n        /* \"#utility.yul\":3527:3551   */\n      tag_88\n        /* \"#utility.yul\":3545:3550   */\n      dup2\n        /* \"#utility.yul\":3527:3551   */\n      tag_36\n      jump\t// in\n    tag_88:\n        /* \"#utility.yul\":3522:3525   */\n      dup3\n        /* \"#utility.yul\":3515:3552   */\n      mstore\n        /* \"#utility.yul\":3440:3558   */\n      pop\n      pop\n      jump\t// out\n        /* \"#utility.yul\":3564:3786   */\n    tag_20:\n        /* \"#utility.yul\":3657:3661   */\n      0x00\n        /* \"#utility.yul\":3695:3697   */\n      0x20\n        /* \"#utility.yul\":3684:3693   */\n      dup3\n        /* \"#utility.yul\":3680:3698   */\n      add\n        /* \"#utility.yul\":3672:3698   */\n      swap1\n      pop\n        /* \"#utility.yul\":3708:3779   */\n      tag_90\n        /* \"#utility.yul\":3776:3777   */\n      0x00\n        /* \"#utility.yul\":3765:3774   */\n      dup4\n        /* \"#utility.yul\":3761:3778   */\n      add\n        /* \"#utility.yul\":3752:3758   */\n      dup5\n        /* \"#utility.yul\":3708:3779   */\n      tag_48\n      jump\t// in\n    tag_90:\n        /* \"#utility.yul\":3564:3786   */\n      swap3\n      swap2\n      pop\n      pop\n      jump\t// out\n\n    auxdata: 0xa2646970667358221220d156276bcbed3ed6107446ae9c408cb0cc6e8e1171d9e6aaa6440d96d8364c8b64736f6c63430008120033\n}\n",
				"bytecode": {
					"linkReferences": {},
					"object": "608060405234801561001057600080fd5b506103c8806100206000396000f3fe608060405234801561001057600080fd5b506004361061004c5760003560e01c806338d94193146100515780636d4ce63c14610081578063a16d35981461009f578063c3344af8146100bd575b600080fd5b61006b60048036038101906100669190610227565b6100c7565b604051610078919061026d565b60405180910390f35b6100896100eb565b6040516100969190610346565b60405180910390f35b6100a7610143565b6040516100b49190610377565b60405180910390f35b6100c561014f565b005b600081815481106100d757600080fd5b906000526020600020016000915090505481565b6060600080548060200260200160405190810160405280929190818152602001828054801561013957602002820191906000526020600020905b815481526020019060010190808311610125575b5050505050905090565b60008080549050905090565b60007ffffffffffffffffffffffffffffffffffffffffffffffffffffffffffffffffb9080600181540180825580915050600190039060005260206000200160009091909190915055600080806001815401808255809150506001900390600052602060002001600090919091909150556000600a9080600181540180825580915050600190039060005260206000200160009091909190915055565b600080fd5b6000819050919050565b610204816101f1565b811461020f57600080fd5b50565b600081359050610221816101fb565b92915050565b60006020828403121561023d5761023c6101ec565b5b600061024b84828501610212565b91505092915050565b6000819050919050565b61026781610254565b82525050565b6000602082019050610282600083018461025e565b92915050565b600081519050919050565b600082825260208201905092915050565b6000819050602082019050919050565b6102bd81610254565b82525050565b60006102cf83836102b4565b60208301905092915050565b6000602082019050919050565b60006102f382610288565b6102fd8185610293565b9350610308836102a4565b8060005b8381101561033957815161032088826102c3565b975061032b836102db565b92505060018101905061030c565b5085935050505092915050565b6000602082019050818103600083015261036081846102e8565b905092915050565b610371816101f1565b82525050565b600060208201905061038c6000830184610368565b9291505056fea2646970667358221220d156276bcbed3ed6107446ae9c408cb0cc6e8e1171d9e6aaa6440d96d8364c8b64736f6c63430008120033",
					"opcodes": "PUSH1 0x80 PUSH1 0x40 MSTORE CALLVALUE DUP1 ISZERO PUSH2 0x10 JUMPI PUSH1 0x0 DUP1 REVERT JUMPDEST POP PUSH2 0x3C8 DUP1 PUSH2 0x20 PUSH1 0x0 CODECOPY PUSH1 0x0 RETURN INVALID PUSH1 0x80 PUSH1 0x40 MSTORE CALLVALUE DUP1 ISZERO PUSH2 0x10 JUMPI PUSH1 0x0 DUP1 REVERT JUMPDEST POP PUSH1 0x4 CALLDATASIZE LT PUSH2 0x4C JUMPI PUSH1 0x0 CALLDATALOAD PUSH1 0xE0 SHR DUP1 PUSH4 0x38D94193 EQ PUSH2 0x51 JUMPI DUP1 PUSH4 0x6D4CE63C EQ PUSH2 0x81 JUMPI DUP1 PUSH4 0xA16D3598 EQ PUSH2 0x9F JUMPI DUP1 PUSH4 0xC3344AF8 EQ PUSH2 0xBD JUMPI JUMPDEST PUSH1 0x0 DUP1 REVERT JUMPDEST PUSH2 0x6B PUSH1 0x4 DUP1 CALLDATASIZE SUB DUP2 ADD SWAP1 PUSH2 0x66 SWAP2 SWAP1 PUSH2 0x227 JUMP JUMPDEST PUSH2 0xC7 JUMP JUMPDEST PUSH1 0x40 MLOAD PUSH2 0x78 SWAP2 SWAP1 PUSH2 0x26D JUMP JUMPDEST PUSH1 0x40 MLOAD DUP1 SWAP2 SUB SWAP1 RETURN JUMPDEST PUSH2 0x89 PUSH2 0xEB JUMP JUMPDEST PUSH1 0x40 MLOAD PUSH2 0x96 SWAP2 SWAP1 PUSH2 0x346 JUMP JUMPDEST PUSH1 0x40 MLOAD DUP1 SWAP2 SUB SWAP1 RETURN JUMPDEST PUSH2 0xA7 PUSH2 0x143 JUMP JUMPDEST PUSH1 0x40 MLOAD PUSH2 0xB4 SWAP2 SWAP1 PUSH2 0x377 JUMP JUMPDEST PUSH1 0x40 MLOAD DUP1 SWAP2 SUB SWAP1 RETURN JUMPDEST PUSH2 0xC5 PUSH2 0x14F JUMP JUMPDEST STOP JUMPDEST PUSH1 0x0 DUP2 DUP2 SLOAD DUP2 LT PUSH2 0xD7 JUMPI PUSH1 0x0 DUP1 REVERT JUMPDEST SWAP1 PUSH1 0x0 MSTORE PUSH1 0x20 PUSH1 0x0 KECCAK256 ADD PUSH1 0x0 SWAP2 POP SWAP1 POP SLOAD DUP2 JUMP JUMPDEST PUSH1 0x60 PUSH1 0x0 DUP1 SLOAD DUP1 PUSH1 0x20 MUL PUSH1 0x20 ADD PUSH1 0x40 MLOAD SWAP1 DUP2 ADD PUSH1 0x40 MSTORE DUP1 SWAP3 SWAP2 SWAP1 DUP2 DUP2 MSTORE PUSH1 0x20 ADD DUP3 DUP1 SLOAD DUP1 ISZERO PUSH2 0x139 JUMPI PUSH1 0x20 MUL DUP3 ADD SWAP2 SWAP1 PUSH1 0x0 MSTORE PUSH1 0x20 PUSH1 0x0 KECCAK256 SWAP1 JUMPDEST DUP2 SLOAD DUP2 MSTORE PUSH1 0x20 ADD SWAP1 PUSH1 0x1 ADD SWAP1 DUP1 DUP4 GT PUSH2 0x125 JUMPI JUMPDEST POP POP POP POP POP SWAP1 POP SWAP1 JUMP JUMPDEST PUSH1 0x0 DUP1 DUP1 SLOAD SWAP1 POP SWAP1 POP SWAP1 JUMP JUMPDEST PUSH1 0x0 PUSH32 0xFFFFFFFFFFFFFFFFFFFFFFFFFFFFFFFFFFFFFFFFFFFFFFFFFFFFFFFFFFFFFFFB SWAP1 DUP1 PUSH1 0x1 DUP2 SLOAD ADD DUP1 DUP3 SSTORE DUP1 SWAP2 POP POP PUSH1 0x1 SWAP1 SUB SWAP1 PUSH1 0x0 MSTORE PUSH1 0x20 PUSH1 0x0 KECCAK256 ADD PUSH1 0x0 SWAP1 SWAP2 SWAP1 SWAP2 SWAP1 SWAP2 POP SSTORE PUSH1 0x0 DUP1 DUP1 PUSH1 0x1 DUP2 SLOAD ADD DUP1 DUP3 SSTORE DUP1 SWAP2 POP POP PUSH1 0x1 SWAP1 SUB SWAP1 PUSH1 0x0 MSTORE PUSH1 0x20 PUSH1 0x0 KECCAK256 ADD PUSH1 0x0 SWAP1 SWAP2 SWAP1 SWAP2 SWAP1 SWAP2 POP SSTORE PUSH1 0x0 PUSH1 0xA SWAP1 DUP1 PUSH1 0x1 DUP2 SLOAD ADD DUP1 DUP3 SSTORE DUP1 SWAP2 POP POP PUSH1 0x1 SWAP1 SUB SWAP1 PUSH1 0x0 MSTORE PUSH1 0x20 PUSH1 0x0 KECCAK256 ADD PUSH1 0x0 SWAP1 SWAP2 SWAP1 SWAP2 SWAP1 SWAP2 POP SSTORE JUMP JUMPDEST PUSH1 0x0 DUP1 REVERT JUMPDEST PUSH1 0x0 DUP2 SWAP1 POP SWAP2 SWAP1 POP JUMP JUMPDEST PUSH2 0x204 DUP2 PUSH2 0x1F1 JUMP JUMPDEST DUP2 EQ PUSH2 0x20F JUMPI PUSH1 0x0 DUP1 REVERT JUMPDEST POP JUMP JUMPDEST PUSH1 0x0 DUP2 CALLDATALOAD SWAP1 POP PUSH2 0x221 DUP2 PUSH2 0x1FB JUMP JUMPDEST SWAP3 SWAP2 POP POP JUMP JUMPDEST PUSH1 0x0 PUSH1 0x20 DUP3 DUP5 SUB SLT ISZERO PUSH2 0x23D JUMPI PUSH2 0x23C PUSH2 0x1EC JUMP JUMPDEST JUMPDEST PUSH1 0x0 PUSH2 0x24B DUP5 DUP3 DUP6 ADD PUSH2 0x212 JUMP JUMPDEST SWAP2 POP POP SWAP3 SWAP2 POP POP JUMP JUMPDEST PUSH1 0x0 DUP2 SWAP1 POP SWAP2 SWAP1 POP JUMP JUMPDEST PUSH2 0x267 DUP2 PUSH2 0x254 JUMP JUMPDEST DUP3 MSTORE POP POP JUMP JUMPDEST PUSH1 0x0 PUSH1 0x20 DUP3 ADD SWAP1 POP PUSH2 0x282 PUSH1 0x0 DUP4 ADD DUP5 PUSH2 0x25E JUMP JUMPDEST SWAP3 SWAP2 POP POP JUMP JUMPDEST PUSH1 0x0 DUP2 MLOAD SWAP1 POP SWAP2 SWAP1 POP JUMP JUMPDEST PUSH1 0x0 DUP3 DUP3 MSTORE PUSH1 0x20 DUP3 ADD SWAP1 POP SWAP3 SWAP2 POP POP JUMP JUMPDEST PUSH1 0x0 DUP2 SWAP1 POP PUSH1 0x20 DUP3 ADD SWAP1 POP SWAP2 SWAP1 POP JUMP JUMPDEST PUSH2 0x2BD DUP2 PUSH2 0x254 JUMP JUMPDEST DUP3 MSTORE POP POP JUMP JUMPDEST PUSH1 0x0 PUSH2 0x2CF DUP4 DUP4 PUSH2 0x2B4 JUMP JUMPDEST PUSH1 0x20 DUP4 ADD SWAP1 POP SWAP3 SWAP2 POP POP JUMP JUMPDEST PUSH1 0x0 PUSH1 0x20 DUP3 ADD SWAP1 POP SWAP2 SWAP1 POP JUMP JUMPDEST PUSH1 0x0 PUSH2 0x2F3 DUP3 PUSH2 0x288 JUMP JUMPDEST PUSH2 0x2FD DUP2 DUP6 PUSH2 0x293 JUMP JUMPDEST SWAP4 POP PUSH2 0x308 DUP4 PUSH2 0x2A4 JUMP JUMPDEST DUP1 PUSH1 0x0 JUMPDEST DUP4 DUP2 LT ISZERO PUSH2 0x339 JUMPI DUP2 MLOAD PUSH2 0x320 DUP9 DUP3 PUSH2 0x2C3 JUMP JUMPDEST SWAP8 POP PUSH2 0x32B DUP4 PUSH2 0x2DB JUMP JUMPDEST SWAP3 POP POP PUSH1 0x1 DUP2 ADD SWAP1 POP PUSH2 0x30C JUMP JUMPDEST POP DUP6 SWAP4 POP POP POP POP SWAP3 SWAP2 POP POP JUMP JUMPDEST PUSH1 0x0 PUSH1 0x20 DUP3 ADD SWAP1 POP DUP2 DUP2 SUB PUSH1 0x0 DUP4 ADD MSTORE PUSH2 0x360 DUP2 DUP5 PUSH2 0x2E8 JUMP JUMPDEST SWAP1 POP SWAP3 SWAP2 POP POP JUMP JUMPDEST PUSH2 0x371 DUP2 PUSH2 0x1F1 JUMP JUMPDEST DUP3 MSTORE POP POP JUMP JUMPDEST PUSH1 0x0 PUSH1 0x20 DUP3 ADD SWAP1 POP PUSH2 0x38C PUSH1 0x0 DUP4 ADD DUP5 PUSH2 0x368 JUMP JUMPDEST SWAP3 SWAP2 POP POP JUMP INVALID LOG2 PUSH5 0x6970667358 0x22 SLT KECCAK256 0xD1 JUMP 0x27 PUSH12 0xCBED3ED6107446AE9C408CB0 0xCC PUSH15 0x8E1171D9E6AAA6440D96D8364C8B64 PUSH20 0x6F6C634300081200330000000000000000000000 "
				},
				"gasEstimates": {
					"creation": {
						"codeDepositCost": "193600",
						"executionCost": "238",
						"totalCost": "193838"
					},
					"external": {
						"array(uint256)": "4860",
						"get()": "infinite",
						"getlength()": "2467",
						"ipush()": "122354"
					}
				},
				"methodIdentifiers": {
					"array(uint256)": "38d94193",
					"get()": "6d4ce63c",
					"getlength()": "a16d3598",
					"ipush()": "c3344af8"
				}
			},
			"storageLayout": {
				"storage": [
					{
						"astId": 4,
						"contract": "exercise8.sol:Array",
						"label": "array",
						"offset": 0,
						"slot": "0",
						"type": "t_array(t_int256)dyn_storage"
					}
				],
				"types": {
					"t_array(t_int256)dyn_storage": {
						"base": "t_int256",
						"encoding": "dynamic_array",
						"label": "int256[]",
						"numberOfBytes": "32"
					},
					"t_int256": {
						"encoding": "inplace",
						"label": "int256",
						"numberOfBytes": "32"
					}
				}
			},
			"userdoc": {
				"kind": "user",
				"methods": {},
				"version": 1
			}
		}
	}
}