{
	"Task2.sol": {
		"integers": {
			"abi": [
				{
					"inputs": [],
					"name": "maxInt16",
					"outputs": [
						{
							"internalType": "int256",
							"name": "",
							"type": "int256"
						}
					],
					"stateMutability": "view",
					"type": "function"
				},
				{
					"inputs": [],
					"name": "maxUint24",
					"outputs": [
						{
							"internalType": "uint256",
							"name": "",
							"type": "uint256"
						}
					],
					"stateMutability": "view",
					"type": "function"
				},
				{
					"inputs": [],
					"name": "minInt16",
					"outputs": [
						{
							"internalType": "int256",
							"name": "",
							"type": "int256"
						}
					],
					"stateMutability": "view",
					"type": "function"
				},
				{
					"inputs": [],
					"name": "minUint24",
					"outputs": [
						{
							"internalType": "uint256",
							"name": "",
							"type": "uint256"
						}
					],
					"stateMutability": "view",
					"type": "function"
				}
			],
			"devdoc": {
				"kind": "dev",
				"methods": {},
				"version": 1
			},
			"evm": {
				"assembly": "    /* \"Task2.sol\":63:269  contract integers {... */\n  mstore(0x40, 0x80)\n    /* \"Task2.sol\":110:125  type(int16).min */\n  0xffffffffffffffffffffffffffffffffffffffffffffffffffffffffffff8000\n    /* \"Task2.sol\":88:125  int public minInt16 = type(int16).min */\n  0x01\n  signextend\n  0x00\n  sstore\n    /* \"Task2.sol\":154:169  type(int16).max */\n  0x7fff\n    /* \"Task2.sol\":132:169  int public maxInt16 = type(int16).max */\n  0x01\n  signextend\n  0x01\n  sstore\n    /* \"Task2.sol\":202:218  type(uint24).min */\n  0x00\n    /* \"Task2.sol\":178:218  uint public minUint24 = type(uint24).min */\n  0xffffff\n  and\n  0x02\n  sstore\n    /* \"Task2.sol\":249:265  type(uint24).max */\n  0xffffff\n    /* \"Task2.sol\":225:265  uint public maxUint24 = type(uint24).max */\n  dup1\n  and\n  0x03\n  sstore\n    /* \"Task2.sol\":63:269  contract integers {... */\n  callvalue\n  dup1\n  iszero\n  tag_1\n  jumpi\n  0x00\n  dup1\n  revert\ntag_1:\n  pop\n  dataSize(sub_0)\n  dup1\n  dataOffset(sub_0)\n  0x00\n  codecopy\n  0x00\n  return\nstop\n\nsub_0: assembly {\n        /* \"Task2.sol\":63:269  contract integers {... */\n      mstore(0x40, 0x80)\n      callvalue\n      dup1\n      iszero\n      tag_1\n      jumpi\n      0x00\n      dup1\n      revert\n    tag_1:\n      pop\n      jumpi(tag_2, lt(calldatasize, 0x04))\n      shr(0xe0, calldataload(0x00))\n      dup1\n      0xa7df2feb\n      eq\n      tag_3\n      jumpi\n      dup1\n      0xbc302d04\n      eq\n      tag_4\n      jumpi\n      dup1\n      0xc93e6582\n      eq\n      tag_5\n      jumpi\n      dup1\n      0xdbce5e68\n      eq\n      tag_6\n      jumpi\n    tag_2:\n      0x00\n      dup1\n      revert\n        /* \"Task2.sol\":132:169  int public maxInt16 = type(int16).max */\n    tag_3:\n      tag_7\n      tag_8\n      jump\t// in\n    tag_7:\n      mload(0x40)\n      tag_9\n      swap2\n      swap1\n      tag_10\n      jump\t// in\n    tag_9:\n      mload(0x40)\n      dup1\n      swap2\n      sub\n      swap1\n      return\n        /* \"Task2.sol\":178:218  uint public minUint24 = type(uint24).min */\n    tag_4:\n      tag_11\n      tag_12\n      jump\t// in\n    tag_11:\n      mload(0x40)\n      tag_13\n      swap2\n      swap1\n      tag_14\n      jump\t// in\n    tag_13:\n      mload(0x40)\n      dup1\n      swap2\n      sub\n      swap1\n      return\n        /* \"Task2.sol\":225:265  uint public maxUint24 = type(uint24).max */\n    tag_5:\n      tag_15\n      tag_16\n      jump\t// in\n    tag_15:\n      mload(0x40)\n      tag_17\n      swap2\n      swap1\n      tag_14\n      jump\t// in\n    tag_17:\n      mload(0x40)\n      dup1\n      swap2\n      sub\n      swap1\n      return\n        /* \"Task2.sol\":88:125  int public minInt16 = type(int16).min */\n    tag_6:\n      tag_18\n      tag_19\n      jump\t// in\n    tag_18:\n      mload(0x40)\n      tag_20\n      swap2\n      swap1\n      tag_10\n      jump\t// in\n    tag_20:\n      mload(0x40)\n      dup1\n      swap2\n      sub\n      swap1\n      return\n        /* \"Task2.sol\":132:169  int public maxInt16 = type(int16).max */\n    tag_8:\n      sload(0x01)\n      dup2\n      jump\t// out\n        /* \"Task2.sol\":178:218  uint public minUint24 = type(uint24).min */\n    tag_12:\n      sload(0x02)\n      dup2\n      jump\t// out\n        /* \"Task2.sol\":225:265  uint public maxUint24 = type(uint24).max */\n    tag_16:\n      sload(0x03)\n      dup2\n      jump\t// out\n        /* \"Task2.sol\":88:125  int public minInt16 = type(int16).min */\n    tag_19:\n      sload(0x00)\n      dup2\n      jump\t// out\n        /* \"#utility.yul\":7:83   */\n    tag_21:\n        /* \"#utility.yul\":43:50   */\n      0x00\n        /* \"#utility.yul\":72:77   */\n      dup2\n        /* \"#utility.yul\":61:77   */\n      swap1\n      pop\n        /* \"#utility.yul\":7:83   */\n      swap2\n      swap1\n      pop\n      jump\t// out\n        /* \"#utility.yul\":89:204   */\n    tag_22:\n        /* \"#utility.yul\":174:197   */\n      tag_28\n        /* \"#utility.yul\":191:196   */\n      dup2\n        /* \"#utility.yul\":174:197   */\n      tag_21\n      jump\t// in\n    tag_28:\n        /* \"#utility.yul\":169:172   */\n      dup3\n        /* \"#utility.yul\":162:198   */\n      mstore\n        /* \"#utility.yul\":89:204   */\n      pop\n      pop\n      jump\t// out\n        /* \"#utility.yul\":210:428   */\n    tag_10:\n        /* \"#utility.yul\":301:305   */\n      0x00\n        /* \"#utility.yul\":339:341   */\n      0x20\n        /* \"#utility.yul\":328:337   */\n      dup3\n        /* \"#utility.yul\":324:342   */\n      add\n        /* \"#utility.yul\":316:342   */\n      swap1\n      pop\n        /* \"#utility.yul\":352:421   */\n      tag_30\n        /* \"#utility.yul\":418:419   */\n      0x00\n        /* \"#utility.yul\":407:416   */\n      dup4\n        /* \"#utility.yul\":403:420   */\n      add\n        /* \"#utility.yul\":394:400   */\n      dup5\n        /* \"#utility.yul\":352:421   */\n      tag_22\n      jump\t// in\n    tag_30:\n        /* \"#utility.yul\":210:428   */\n      swap3\n      swap2\n      pop\n      pop\n      jump\t// out\n        /* \"#utility.yul\":434:511   */\n    tag_23:\n        /* \"#utility.yul\":471:478   */\n      0x00\n        /* \"#utility.yul\":500:505   */\n      dup2\n        /* \"#utility.yul\":489:505   */\n      swap1\n      pop\n        /* \"#utility.yul\":434:511   */\n      swap2\n      swap1\n      pop\n      jump\t// out\n        /* \"#utility.yul\":517:635   */\n    tag_24:\n        /* \"#utility.yul\":604:628   */\n      tag_33\n        /* \"#utility.yul\":622:627   */\n      dup2\n        /* \"#utility.yul\":604:628   */\n      tag_23\n      jump\t// in\n    tag_33:\n        /* \"#utility.yul\":599:602   */\n      dup3\n        /* \"#utility.yul\":592:629   */\n      mstore\n        /* \"#utility.yul\":517:635   */\n      pop\n      pop\n      jump\t// out\n        /* \"#utility.yul\":641:863   */\n    tag_14:\n        /* \"#utility.yul\":734:738   */\n      0x00\n        /* \"#utility.yul\":772:774   */\n      0x20\n        /* \"#utility.yul\":761:770   */\n      dup3\n        /* \"#utility.yul\":757:775   */\n      add\n        /* \"#utility.yul\":749:775   */\n      swap1\n      pop\n        /* \"#utility.yul\":785:856   */\n      tag_35\n        /* \"#utility.yul\":853:854   */\n      0x00\n        /* \"#utility.yul\":842:851   */\n      dup4\n        /* \"#utility.yul\":838:855   */\n      add\n        /* \"#utility.yul\":829:835   */\n      dup5\n        /* \"#utility.yul\":785:856   */\n      tag_24\n      jump\t// in\n    tag_35:\n        /* \"#utility.yul\":641:863   */\n      swap3\n      swap2\n      pop\n      pop\n      jump\t// out\n\n    auxdata: 0xa2646970667358221220b44026627bdeab9f3371bfe73e27ccba5699794b68b020d385fcdb8fa4ae97a764736f6c63430008120033\n}\n",
				"bytecode": {
					"linkReferences": {},
					"object": "60806040527fffffffffffffffffffffffffffffffffffffffffffffffffffffffffffff800060010b600055617fff60010b600155600062ffffff1660025562ffffff801660035534801561005357600080fd5b5061017f806100636000396000f3fe608060405234801561001057600080fd5b506004361061004c5760003560e01c8063a7df2feb14610051578063bc302d041461006f578063c93e65821461008d578063dbce5e68146100ab575b600080fd5b6100596100c9565b60405161006691906100fa565b60405180910390f35b6100776100cf565b604051610084919061012e565b60405180910390f35b6100956100d5565b6040516100a2919061012e565b60405180910390f35b6100b36100db565b6040516100c091906100fa565b60405180910390f35b60015481565b60025481565b60035481565b60005481565b6000819050919050565b6100f4816100e1565b82525050565b600060208201905061010f60008301846100eb565b92915050565b6000819050919050565b61012881610115565b82525050565b6000602082019050610143600083018461011f565b9291505056fea2646970667358221220b44026627bdeab9f3371bfe73e27ccba5699794b68b020d385fcdb8fa4ae97a764736f6c63430008120033",
					"opcodes": "PUSH1 0x80 PUSH1 0x40 MSTORE PUSH32 0xFFFFFFFFFFFFFFFFFFFFFFFFFFFFFFFFFFFFFFFFFFFFFFFFFFFFFFFFFFFF8000 PUSH1 0x1 SIGNEXTEND PUSH1 0x0 SSTORE PUSH2 0x7FFF PUSH1 0x1 SIGNEXTEND PUSH1 0x1 SSTORE PUSH1 0x0 PUSH3 0xFFFFFF AND PUSH1 0x2 SSTORE PUSH3 0xFFFFFF DUP1 AND PUSH1 0x3 SSTORE CALLVALUE DUP1 ISZERO PUSH2 0x53 JUMPI PUSH1 0x0 DUP1 REVERT JUMPDEST POP PUSH2 0x17F DUP1 PUSH2 0x63 PUSH1 0x0 CODECOPY PUSH1 0x0 RETURN INVALID PUSH1 0x80 PUSH1 0x40 MSTORE CALLVALUE DUP1 ISZERO PUSH2 0x10 JUMPI PUSH1 0x0 DUP1 REVERT JUMPDEST POP PUSH1 0x4 CALLDATASIZE LT PUSH2 0x4C JUMPI PUSH1 0x0 CALLDATALOAD PUSH1 0xE0 SHR DUP1 PUSH4 0xA7DF2FEB EQ PUSH2 0x51 JUMPI DUP1 PUSH4 0xBC302D04 EQ PUSH2 0x6F JUMPI DUP1 PUSH4 0xC93E6582 EQ PUSH2 0x8D JUMPI DUP1 PUSH4 0xDBCE5E68 EQ PUSH2 0xAB JUMPI JUMPDEST PUSH1 0x0 DUP1 REVERT JUMPDEST PUSH2 0x59 PUSH2 0xC9 JUMP JUMPDEST PUSH1 0x40 MLOAD PUSH2 0x66 SWAP2 SWAP1 PUSH2 0xFA JUMP JUMPDEST PUSH1 0x40 MLOAD DUP1 SWAP2 SUB SWAP1 RETURN JUMPDEST PUSH2 0x77 PUSH2 0xCF JUMP JUMPDEST PUSH1 0x40 MLOAD PUSH2 0x84 SWAP2 SWAP1 PUSH2 0x12E JUMP JUMPDEST PUSH1 0x40 MLOAD DUP1 SWAP2 SUB SWAP1 RETURN JUMPDEST PUSH2 0x95 PUSH2 0xD5 JUMP JUMPDEST PUSH1 0x40 MLOAD PUSH2 0xA2 SWAP2 SWAP1 PUSH2 0x12E JUMP JUMPDEST PUSH1 0x40 MLOAD DUP1 SWAP2 SUB SWAP1 RETURN JUMPDEST PUSH2 0xB3 PUSH2 0xDB JUMP JUMPDEST PUSH1 0x40 MLOAD PUSH2 0xC0 SWAP2 SWAP1 PUSH2 0xFA JUMP JUMPDEST PUSH1 0x40 MLOAD DUP1 SWAP2 SUB SWAP1 RETURN JUMPDEST PUSH1 0x1 SLOAD DUP2 JUMP JUMPDEST PUSH1 0x2 SLOAD DUP2 JUMP JUMPDEST PUSH1 0x3 SLOAD DUP2 JUMP JUMPDEST PUSH1 0x0 SLOAD DUP2 JUMP JUMPDEST PUSH1 0x0 DUP2 SWAP1 POP SWAP2 SWAP1 POP JUMP JUMPDEST PUSH2 0xF4 DUP2 PUSH2 0xE1 JUMP JUMPDEST DUP3 MSTORE POP POP JUMP JUMPDEST PUSH1 0x0 PUSH1 0x20 DUP3 ADD SWAP1 POP PUSH2 0x10F PUSH1 0x0 DUP4 ADD DUP5 PUSH2 0xEB JUMP JUMPDEST SWAP3 SWAP2 POP POP JUMP JUMPDEST PUSH1 0x0 DUP2 SWAP1 POP SWAP2 SWAP1 POP JUMP JUMPDEST PUSH2 0x128 DUP2 PUSH2 0x115 JUMP JUMPDEST DUP3 MSTORE POP POP JUMP JUMPDEST PUSH1 0x0 PUSH1 0x20 DUP3 ADD SWAP1 POP PUSH2 0x143 PUSH1 0x0 DUP4 ADD DUP5 PUSH2 0x11F JUMP JUMPDEST SWAP3 SWAP2 POP POP JUMP INVALID LOG2 PUSH5 0x6970667358 0x22 SLT KECCAK256 0xB4 BLOCKHASH 0x26 PUSH3 0x7BDEAB SWAP16 CALLER PUSH18 0xBFE73E27CCBA5699794B68B020D385FCDB8F LOG4 0xAE SWAP8 0xA7 PUSH5 0x736F6C6343 STOP ADDMOD SLT STOP CALLER "
				},
				"gasEstimates": {
					"creation": {
						"codeDepositCost": "76600",
						"executionCost": "71475",
						"totalCost": "148075"
					},
					"external": {
						"maxInt16()": "2407",
						"maxUint24()": "2451",
						"minInt16()": "2473",
						"minUint24()": "2429"
					}
				},
				"methodIdentifiers": {
					"maxInt16()": "a7df2feb",
					"maxUint24()": "c93e6582",
					"minInt16()": "dbce5e68",
					"minUint24()": "bc302d04"
				}
			},
			"storageLayout": {
				"storage": [
					{
						"astId": 8,
						"contract": "Task2.sol:integers",
						"label": "minInt16",
						"offset": 0,
						"slot": "0",
						"type": "t_int256"
					},
					{
						"astId": 15,
						"contract": "Task2.sol:integers",
						"label": "maxInt16",
						"offset": 0,
						"slot": "1",
						"type": "t_int256"
					},
					{
						"astId": 22,
						"contract": "Task2.sol:integers",
						"label": "minUint24",
						"offset": 0,
						"slot": "2",
						"type": "t_uint256"
					},
					{
						"astId": 29,
						"contract": "Task2.sol:integers",
						"label": "maxUint24",
						"offset": 0,
						"slot": "3",
						"type": "t_uint256"
					}
				],
				"types": {
					"t_int256": {
						"encoding": "inplace",
						"label": "int256",
						"numberOfBytes": "32"
					},
					"t_uint256": {
						"encoding": "inplace",
						"label": "uint256",
						"numberOfBytes": "32"
					}
				}
			},
			"userdoc": {
				"kind": "user",
				"methods": {},
				"version": 1
			}
		}
	}
}